:020000040800F2
:1000000000000220A91B00085D0300086903000826
:100010007103000879030008810300080000000054
:10002000000000000000000000000000890300083C
:100030009503000800000000A1030008AD030008BC
:10004000ED1B0008ED1B0008ED1B0008ED1B000870
:10005000ED1B0008ED1B0008ED1B0008ED1B000860
:10006000ED1B0008ED1B0008ED1B0008ED1B000850
:10007000ED1B0008ED1B0008ED1B0008ED1B000840
:10008000ED1B0008ED1B0008ED1B0008ED1B000830
:10009000ED1B0008ED1B0008ED1B0008ED1B000820
:1000A000ED1B0008ED1B0008ED1B0008ED1B000810
:1000B000ED1B0008ED1B0008ED1B0008ED1B000800
:1000C000ED1B0008ED1B0008ED1B0008ED1B0008F0
:1000D000ED1B0008ED1B0008ED1B0008ED1B0008E0
:1000E000ED1B0008ED1B0008ED1B0008ED1B0008D0
:1000F000ED1B0008ED1B0008ED1B0008ED1B0008C0
:10010000ED1B0008ED1B0008ED1B0008ED1B0008AF
:10011000ED1B0008ED1B0008ED1B0008ED1B00089F
:10012000ED1B0008ED1B0008ED1B0008ED1B00088F
:10013000ED1B0008ED1B0008ED1B0008ED1B00087F
:10014000ED1B0008ED1B0008ED1B0008ED1B00086F
:10015000ED1B0008ED1B0008ED1B0008ED1B00085F
:10016000ED1B0008ED1B0008ED1B0008ED1B00084F
:10017000ED1B0008ED1B0008ED1B0008ED1B00083F
:08018000ED1B0008ED1B000857
:10018800044B05481B1A062B02D9044B03B1184728
:10019800704700BF730400207004002000000000B6
:1001A80005490648091A891001EBD171491002D096
:1001B800034B03B1184770477004002070040020F7
:1001C8000000000010B5064C237843B9FFF7D8FFAC
:1001D800044B13B10448AFF300800123237010BD12
:1001E8007004002000000000FC1E000808B5084B41
:1001F8001BB108480849AFF300800848036813B9E1
:10020800BDE80840CCE7064B002BF9D09847F7E744
:1002180000000000FC1E0008740400206C0400208C
:1002280000000000134B002B08BF114B9D46A3F59F
:10023800803A00218B460F461148124A121A01F0E3
:1002480027FD0D4B002B00D098470C4B002B00D0FE
:1002580098470020002104000D000B4801F0C4FC61
:1002680001F0EEFC2000290000F010F801F0C2FCBB
:10027800000008000000000000000000000000006E
:1002880070040020980400201D1C000880B500AFF1
:100298000820012101F010F9224B4FF470421A6036
:1002A800204B01221A711F4B00229A711D4B032209
:1002B8005A711C4B0022DA711B481A4900F062FC83
:1002C8000120012101F0F8F8164B03221A60154BA2
:1002D80003225A71134B01221A71124B00229A7190
:1002E8001248104900F04EFC1048012100F072FD40
:1002F8000F4800F01FF80D48022100F06BFD0C4874
:1003080000F018F80948012100F056FD084800F0EF
:1003180011F80648022100F04FFD054800F00AF8E0
:10032800E2E700BF8C040020000C024000000240FD
:10033800FFFF2F0080B483B000AF786000BF7B68F8
:100348005A1E7A60002BFAD10C37BD465DF8047B43
:10035800704700BF80B400AFBD465DF8047B7047AE
:1003680080B400AFFEE700BF80B400AFFEE700BF77
:1003780080B400AFFEE700BF80B400AFFEE700BF67
:1003880080B400AFBD465DF8047B704780B400AF11
:10039800BD465DF8047B704780B400AFBD465DF88C
:1003A800047B704780B400AFBD465DF8047B70479E
:1003B80080B500AF114A114B1B6843F0010313606D
:1003C8000E4B00229A600D4A0C4B1B6823F0847375
:1003D80023F480331360094B094A5A60074A074BD4
:1003E8001B6823F480231360044B0022DA6000F0BA
:1003F80087F8044B4FF000629A6080BD00380240D5
:100408001030002400ED00E080B487B000AF002376
:100418003B6100237B610223FB600023BB60022356
:100428007B60324B9B6803F00C033B613B69042BF8
:1004380007D0082B09D0002B3FD12D4B2D4A1A602D
:100448003FE02B4B2C4A1A603BE0284B5B6803F4D7
:1004580080039B0DBB60254B5B6803F03F037B600B
:10046800BB68002B0DD0244A7B68B2FBF3F21F4B0C
:10047800596847F6C0730B409B0903FB02F37B6185
:100488000CE01C4A7B68B2FBF3F2184B596847F63C
:10049800C0730B409B0903FB02F37B61134B5B6842
:1004A80003F440331B0C01335B00FB607A69FB6883
:1004B800B2FBF3F30E4A136003E00D4B0D4A1A60CA
:1004C80000BF0A4B9B6803F0F0031B090B4AD35C7F
:1004D800DBB23B61064B1A683B6922FA03F3044A14
:1004E80013601C37BD465DF8047B70470038024036
:1004F800040000200024F40000127A000800002004
:1005080080B483B000AF00237B6000233B60354A92
:10051800344B1B6843F480331360324B1B6803F47D
:1005280000333B607B6801337B603B68002B03D161
:100538007B68B3F5A06FF0D12A4B1B6803F4003336
:10054800002B02D001233B6001E000233B603B68A5
:10055800012B42D1234A234B1B6C43F08053136475
:10056800214A214B1B6843F4804313601D4A1D4BED
:100578009B6893601B4A1B4B9B6843F40043936042
:10058800184A184B9B6843F4A0539360154B174ABD
:100598005A60144A134B1B6843F08073136000BF02
:1005A800104B1B6803F00073002BF9D0104B40F27E
:1005B80005621A600B4A0B4B9B6823F00303936098
:1005C800084A084B9B6843F00203936000BF054B41
:1005D8009B6803F00C03082BF9D10C37BD465DF876
:1005E800047B704700380240007000400854400700
:1005F800003C024080B584B000AF0346FB71FB7934
:10060800104A52F823301846012100F055FFFB79B3
:100618000D4A32F81330BB6001233B730023BB73D0
:100628000123FB7302237B73FB79084A52F82320CA
:1006380007F108031046194600F0A4FA1037BD4622
:1006480080BD00BFCC1E0008C41E00081800002092
:1006580080B483B000AF0346FB71FB79064A52F8B9
:100668002330FA79054931F812201A830C37BD4630
:100678005DF8047B704700BF18000020C41E000806
:1006880080B483B000AF0346FB71FB79064A52F889
:100698002330FA79054931F812205A830C37BD46C0
:1006A8005DF8047B704700BF18000020C41E0008D6
:1006B80080B483B000AF0346FB71FB79094A52F856
:1006C8002330FA79074951F822205269F979064806
:1006D80030F811104A405A610C37BD465DF8047B6A
:1006E800704700BF18000020C41E000880B588B0FD
:1006F80000AF03460A46FB711346BB710123184637
:10070800012100F0D9FE4FF48040012100F04CFF98
:1007180000233B770023FB770123BB61FB79174A52
:1007280052F8232007F118031046194600F02AFA58
:10073800BB79012B1FD1002200231046194600F077
:1007480053F801233B6100233B7508237B75012384
:10075800BB7507F11003184601F024F906233B7313
:100768000F237B730F23BB730123FB7307F10C0368
:10077800184600F0C5F82037BD4680BD2800002087
:1007880080B582B000AF0346FB71FB79064A52F888
:10079800233001221846114600F0BEFA03461846D7
:1007A8000837BD4680BD00BF2800002080B500AFD7
:1007B8004FF48040012100F08DFF4FF4804000216C
:1007C80000F088FF80BD00BF80B483B000AF03464F
:1007D800FB71044AFB7913600C37BD465DF8047B56
:1007E800704700BF0038014090B484B000AF0346A2
:1007F8000A46FB711346BB710023FB60BB7903F00B
:1008080003039B000F2202FA03F3FB601649BB792E
:100818009B08DBB21846144ABB799B08DBB202334B
:1008280052F82320FB68DB431A40831C41F823203D
:100838000D48BB799B08DBB21C460B4ABB799B0869
:10084800DBB2023352F82320F979BB7903F00303B2
:100858009B0001FA03F31A43A31C40F82320103726
:10086800BD4690BC704700BF0038014080B483B0DB
:1008780000AF7860034A7B6813600C37BD465DF8AB
:10088800047B7047DC00274280B483B000AF034686
:10089800FB71044AFB7913600C37BD465DF8047B95
:1008A800704700BF0004274280B483B000AF002324
:1008B800FB71094B1B6A03F48073002B02D00123E0
:1008C800FB7101E00023FB71FB7918460C37BD462C
:1008D8005DF8047B704700BF0038014080B483B0E6
:1008E80000AF7860054A7B6843F0BF6343F4003388
:1008F800D3600C37BD465DF8047B704700ED00E01F
:1009080080B485B000AF78600023FB730023BB730D
:100918000F237B737B68DB78002B38D0264BDB6892
:10092800DB4303F4E0631B0AFB73FB7BC3F10403A3
:10093800BB737A7BFB7B42FA03F37B737B685B7840
:100948001A46BB7B02FA03F3FB737B689A787B7BBE
:100958001340DAB2FB7B1343FB73FB7B1B01FB7376
:10096800164A7B681B781344FA7B83F80023134AE2
:100978007B681B785B09DBB218467B681B7803F041
:100988001F03012101FA03F342F820300FE00B495D
:100998007B681B785B09DBB218467B681B7803F021
:1009A8001F0301229A4000F1200341F82320143745
:1009B800BD465DF8047B704700ED00E000E100E013
:1009C80080B483B000AF7860396007493B6823F092
:1009D800604323F07F037A6813438B600C37BD466E
:1009E8005DF8047B704700BF00ED00E080B483B081
:1009F80000AF03460A46FB711346BB71BB79002B57
:100A080006D00949084B1A69FB7913430B6106E0C4
:100A18000549054B1A69FB79DB4313400B610C3719
:100A2800BD465DF8047B704700ED00E080B483B0FC
:100A380000AF78607B68042B06D1094A084B1B6815
:100A480043F00403136005E0054A054B1B6823F0D7
:100A5800040313600C37BD465DF8047B704700BF84
:100A680010E000E080B582B000AF78607B683C4A57
:100A7800934208D10120012100F0B4FD012000219A
:100A880000F0B0FD68E07B68364A934208D1022046
:100A9800012100F0A7FD0220002100F0A3FD5BE08A
:100AA8007B68314A934208D10420012100F09AFD65
:100AB8000420002100F096FD4EE07B682B4A93420B
:100AC80008D10820012100F08DFD0820002100F048
:100AD80089FD41E07B68264A934208D11020012114
:100AE80000F080FD1020002100F07CFD34E07B68E0
:100AF800204A934208D12020012100F073FD2020D4
:100B0800002100F06FFD27E07B681B4A934208D163
:100B18004020012100F066FD4020002100F062FD28
:100B28001AE07B68154A934208D18020012100F021
:100B380059FD8020002100F055FD0DE07B68104A2A
:100B4800934209D14FF48070012100F04BFD4FF41E
:100B58008070002100F046FD0837BD4680BD00BF0B
:100B6800000002400004024000080240000C02405D
:100B7800001002400014024000180240001C02400D
:100B88000020024080B487B000AF7860396000234D
:100B98007B6100233B610023FB6000237B6176E0DF
:100BA8007B69012202FA03F33B613B681A683B69DF
:100BB8001340FB60FA683B699A4265D17B681A6802
:100BC8007B695B00194603238B40DB431A407B6833
:100BD8001A607B681A683B681B7919467B695B0059
:100BE80001FA03F31A437B681A603B681B79012BEF
:100BF80003D03B681B79022B2ED17B689A687B69EE
:100C08005B00194603238B40DB431A407B689A60DC
:100C18007B689A683B685B7919467B695B0001FAD7
:100C280003F31A437B689A607B685A687B699BB2B6
:100C3800194601238B40DB431A407B685A607B6866
:100C48005B683A68927911467A6992B201FA02F2BF
:100C580092B21A437B685A607B68DA687B699BB2F8
:100C68005B00032101FA03F3DB431A407B68DA6077
:100C78007B68DA683B68DB7919467B695B0001FAB7
:100C880003F31A437B68DA607B6901337B617B6914
:100C98000F2B85D91C37BD465DF8047B704700BF14
:100CA80080B483B000AF78607B684FF6FF721A603B
:100CB8007B6800221A717B6800225A717B680022C7
:100CC8009A717B680022DA710C37BD465DF8047BA7
:100CD800704700BF80B485B000AF78600B467B805A
:100CE8004FF48033FB607A88FB681343FB60FA6833
:100CF8007B68DA617A887B68DA61FA687B68DA612E
:100D08007B68DB69FB607B68DB69FB601437BD4689
:100D18005DF8047B704700BF80B485B000AF786091
:100D28000B467B800023FB737B681A697B88134022
:100D3800002B02D00123FB7301E00023FB73FB7B34
:100D480018461437BD465DF8047B704780B483B0FD
:100D580000AF78607B681B699BB218460C37BD46AC
:100D68005DF8047B704700BF80B485B000AF786041
:100D78000B467B800023FB737B685A697B88134092
:100D8800002B02D00123FB7301E00023FB73FB7BE4
:100D980018461437BD465DF8047B704780B483B0AD
:100DA80000AF78607B685B699BB218460C37BD461C
:100DB8005DF8047B704700BF80B483B000AF7860F3
:100DC8000B467B807B687A881A830C37BD465DF8B2
:100DD800047B704780B483B000AF78600B467B809B
:100DE8007B687A885A830C37BD465DF8047B704768
:100DF80080B483B000AF78600B467B8013467B706D
:100E08007B78002B03D07B687A881A8302E07B68A2
:100E18007A885A830C37BD465DF8047B704700BF5B
:100E280080B483B000AF78600B467B807A887B689B
:100E38005A610C37BD465DF8047B704780B483B0B7
:100E480000AF78600B467B807B685A697B885A4084
:100E58007B685A610C37BD465DF8047B704700BF5C
:100E680080B485B000AF78600B467B8013467B70FA
:100E78000023FB600023BB607B787A8802F00702BE
:100E880092009340FB607B88DB089BB218467B8806
:100E9800DB089BB21A467B68083253F822207B880D
:100EA80003F007039B0019460F238B40DB4302EA3C
:100EB80003017B6800F1080243F822107B88DB08F5
:100EC8009BB21A467B68083253F82220FB6813430A
:100ED800BB607B88DB089BB21A467B680832B9681E
:100EE80043F822101437BD465DF8047B704700BFF5
:100EF80080B400AF104A104B1B6843F00103136025
:100F08000D4B00229A600C4A0B4B1B6823F084732C
:100F180023F480331360084B084A5A60064A064B8C
:100F28001B6823F480231360034B0022DA60BD465C
:100F38005DF8047B704700BF003802401030002481
:100F480080B483B000AF0346FB71054B00221A70D2
:100F5800034AFB7913700C37BD465DF8047B704774
:100F68000238024080B582B000AF00233B60002306
:100F7800FB710023BB71312000F086FC0346BB7176
:100F88003B6801333B603B68B3F5A06F02D0BB7987
:100F9800002BF0D0312000F077FC0346002B02D064
:100FA8000123FB7101E00023FB71FB791846083728
:100FB800BD4680BD80B485B000AF0346FB710023F9
:100FC800FB600A4B1B68FB60FB6823F0F803FB60BF
:100FD800FB79DB00FA681343FB60044AFB68136083
:100FE8001437BD465DF8047B704700BF00380240E7
:100FF80080B483B000AF0346FB71044AFB791360E9
:101008000C37BD465DF8047B704700BF00004742BF
:1010180080B483B000AF0346FB710C4B00221A70FA
:101028000A4B00221A70FB79012B02D0042B04D042
:1010380007E0064B01221A7003E0044B05221A70E0
:1010480000BF0C37BD465DF8047B7047703802401E
:1010580080B483B000AF0346FB71044AFB79136088
:101068000C37BD465DF8047B704700BF800E4742D1
:1010780080B485B000AFF860B9607A603B600A4917
:101088007B689A01BB681A433B685B08013B1B04F9
:101098001A43FB681A43BB691B0613434B6014379A
:1010A800BD465DF8047B70470038024080B483B0C9
:1010B80000AF0346FB71044AFB7913600C37BD4649
:1010C8005DF8047B704700BF6000474280B483B07E
:1010D80000AF7860396006497B689A013B681B0756
:1010E8001343C1F884300C37BD465DF8047B704764
:1010F8000038024080B483B000AF0346FB71044A55
:10110800FB7913600C37BD465DF8047B704700BF60
:101118006800474280B483B000AF0346FB71044ABD
:10112800FB7913600C37BD465DF8047B704700BF40
:101138004C00474280B485B000AF78603960002326
:10114800FB600A4B9B68FB60FB6823F0EC63FB6069
:101158007A683B681343FA681343FB60034AFB68E9
:1011680093601437BD465DF8047B70470038024031
:1011780080B485B000AF786039600023FB600A4B0B
:101188009B68FB60FB6823F07843FB607A683B68E8
:101198001343FA681343FB60034AFB6893601437F0
:1011A800BD465DF8047B70470038024080B485B0C6
:1011B80000AF78600023FB60094B9B68FB60FB680D
:1011C80023F00303FB60FA687B681343FB60044A5F
:1011D800FB6893601437BD465DF8047B704700BF19
:1011E8000038024080B400AF054B9B68DBB203F0C7
:1011F8000C03DBB21846BD465DF8047B704700BFA0
:101208000038024080B485B000AF78600023FB60EE
:10121800094B9B68FB60FB6823F0F003FB60FA68EE
:101228007B681343FB60044AFB6893601437BD4630
:101238005DF8047B704700BF0038024080B485B079
:1012480000AF78600023FB60094B9B68FB60FB687C
:1012580023F4E053FB60FA687B681343FB60044A9D
:10126800FB6893601437BD465DF8047B704700BF88
:101278000038024080B485B000AF78600023FB607E
:10128800094B9B68FB60FB6823F46043FB607B6849
:10129800DB00FA681343FB60034AFB68936014376A
:1012A800BD465DF8047B70470038024080B489B0C1
:1012B80000AF78600023BB6100237B610023FB61E2
:1012C80002233B610023FB600223BB60484B9B6801
:1012D80003F00C03BB61BB69042B07D0082B09D0B2
:1012E800002B3FD17B68434A1A603FE07B68424A43
:1012F8001A603BE03E4B5B6803F480039B0DFB6088
:101308003B4B5B6803F03F03BB60FB68002B0DD0D1
:10131800394ABB68B2FBF3F2354B596847F6C073DC
:101328000B409B0903FB02F3FB610CE0314ABB68ED
:10133800B2FBF3F22E4B596847F6C0730B409B097A
:1013480003FB02F3FB612A4B5B6803F440331B0C7D
:1013580001335B003B61FA693B69B2FBF3F27B68DE
:101368001A6003E07B68234A1A6000BF204B9B6821
:1013780003F0F003BB61BB691B09BB611F4ABB6972
:1013880013441B78DBB27B617B681A687B69DA409F
:101398007B685A60164B9B6803F4E053BB61BB69DA
:1013A8009B0ABB61154ABB6913441B78DBB27B619E
:1013B8007B685A687B69DA407B689A600C4B9B684B
:1013C80003F46043BB61BB695B0BBB610B4ABB6940
:1013D80013441B78DBB27B617B685A687B69DA400F
:1013E8007B68DA602437BD465DF8047B704700BF30
:1013F800003802400024F40000127A002C0000207B
:1014080080B485B000AF78600023FB607B6803F48C
:101418004073B3F5407F11D10F4B9B68FB60FB68AD
:1014280023F4F813FB607B6823F0704323F44073C4
:10143800FA681343FB60084AFB6893600649064B49
:101448001A6F7B68C3F30B0313430B671437BD464E
:101458005DF8047B704700BF0038024080B483B059
:1014680000AF0346FB71044AFB7913600C37BD4695
:101478005DF8047B704700BF3C0E474280B483B0E0
:1014880000AF0346FB71044AFB7913600C37BD4675
:101498005DF8047B704700BF400E474280B483B0BC
:1014A80000AF7860034A7B6813600C37BD465DF86F
:1014B800047B70475C01474280B483B000AF78601A
:1014C8000B46FB70FB78002B06D00949084B1A6BBA
:1014D8007B6813430B6306E00549054B1A6B7B6871
:1014E800DB4313400B630C37BD465DF8047B704744
:1014F8000038024080B483B000AF78600B46FB70C0
:10150800FB78002B06D00949084B5A6B7B681343BC
:101518004B6306E00549054B5A6B7B68DB43134078
:101528004B630C37BD465DF8047B704700380240BA
:1015380080B483B000AF78600B46FB70FB78002B5B
:1015480006D00949084B9A6B7B6813438B6306E006
:101558000549054B9A6B7B68DB4313408B630C375B
:10156800BD465DF8047B70470038024080B483B004
:1015780000AF78600B46FB70FB78002B06D009495A
:10158800084B1A6C7B6813430B6406E00549054B4E
:101598001A6C7B68DB4313400B640C37BD465DF85F
:1015A800047B70470038024080B483B000AF786095
:1015B8000B46FB70FB78002B06D00949084B5A6C88
:1015C8007B6813434B6406E00549054B5A6C7B68FE
:1015D800DB4313404B640C37BD465DF8047B704712
:1015E8000038024080B483B000AF78600B46FB70CF
:1015F800FB78002B06D00949084B1A697B6813430E
:101608000B6106E00549054B1A697B68DB4313400B
:101618000B610C37BD465DF8047B7047003802400B
:1016280080B483B000AF78600B46FB70FB78002B6A
:1016380006D00949084B5A697B6813434B6106E099
:101648000549054B5A697B68DB4313404B610C37EE
:10165800BD465DF8047B70470038024080B483B013
:1016680000AF78600B46FB70FB78002B06D0094969
:10167800084B9A697B6813438B6106E00549054B63
:101688009A697B68DB4313408B610C37BD465DF874
:10169800047B70470038024080B483B000AF7860A4
:1016A8000B46FB70FB78002B06D00949084B1A6AD9
:1016B8007B6813430B6206E00549054B1A6A7B6891
:1016C800DB4313400B620C37BD465DF8047B704763
:1016D8000038024080B483B000AF78600B46FB70DE
:1016E800FB78002B06D00949084B5A6A7B681343DC
:1016F8004B6206E00549054B5A6A7B68DB43134099
:101708004B620C37BD465DF8047B704700380240D9
:1017180080B483B000AF78600B46FB70FB78002B79
:1017280006D00949084B1A6D7B6813430B6506E020
:101738000549054B1A6D7B68DB4313400B650C3775
:10174800BD465DF8047B70470038024080B483B022
:1017580000AF78600B46FB70FB78002B06D0094978
:10176800084B5A6D7B6813434B6506E00549054BEA
:101778005A6D7B68DB4313404B650C37BD465DF8FB
:10178800047B70470038024080B483B000AF7860B3
:101798000B46FB70FB78002B06D00949084B9A6D65
:1017A8007B6813438B6506E00549054B9A6D7B689A
:1017B800DB4313408B650C37BD465DF8047B7047EF
:1017C8000038024080B483B000AF78600B46FB70ED
:1017D800FB78002B06D00949084B1A6E7B68134327
:1017E8000B6606E00549054B1A6E7B68DB43134020
:1017F8000B660C37BD465DF8047B70470038024025
:1018080080B483B000AF78600B46FB70FB78002B88
:1018180006D00949084B5A6E7B6813434B6606E0AD
:101828000549054B5A6E7B68DB4313404B660C3702
:10183800BD465DF8047B70470038024080B483B031
:1018480000AF03460A46FB711346BB71BB79002BF8
:1018580008D00C490B4B1B78DAB2FB791343DBB287
:101868000B7009E00749074B1B78DAB2FB79DB43B9
:10187800DBB21340DBB20B700C37BD465DF8047B5E
:10188800704700BF0D38024080B487B000AF0346F0
:10189800FB710023FB6000237B610023FB74FB7951
:1018A8005B09DBB2FB60FB68012B03D1124B1B68A1
:1018B8007B6109E0FB68022B03D10F4B1B6F7B6137
:1018C80002E00D4B5B6F7B61FB7903F01F03FB604C
:1018D800FB687A6922FA03F303F00103002B02D0B4
:1018E8000123FB7401E00023FB74FB7C18461C37C2
:1018F800BD465DF8047B70470038024080B400AFF5
:10190800044A044B5B6F43F080735367BD465DF830
:10191800047B70470038024080B485B000AF0346AE
:10192800FB710023FB73094BDA68FB791340002B2A
:1019380002D00123FB7301E00023FB73FB7B1846F5
:101948001437BD465DF8047B704700BF003802407D
:1019580080B483B000AF0346FB71044AFB7913706F
:101968000C37BD465DF8047B704700BF0E38024057
:1019780080B400AF094B00221A60084B00225A605D
:10198800064B00229A60054B0022DA60034B044A9A
:101998005A61BD465DF8047B704700BF003C0140BA
:1019A800FFFF7F0080B485B000AF78600023FB6044
:1019B800344BFB607B689B79002B4FD03149314B0E
:1019C8001A687B681B68DB4313400B602D492D4B5D
:1019D8005A687B681B68DB4313404B607B681B7944
:1019E8001A46FB681344FB60FB68FA6811687A685A
:1019F80012680A431A602349224B9A687B681B685D
:101A0800DB4313408B601F491E4BDA687B681B68F9
:101A1800DB431340CB607B685B79102B0ED11949EF
:101A2800184B9A687B681B6813438B601549154BE4
:101A3800DA687B681B681343CB601DE0114BFB60C1
:101A48007B685B791A46FB681344FB60FB68FA689D
:101A580011687A6812680A431A600DE07B681B797E
:101A68001A46FB681344FB60FB68FA6811687A68D9
:101A78001268D2430A401A601437BD465DF8047BE9
:101A8800704700BF003C014080B483B000AF78606D
:101A98007B6800221A607B6800221A717B680C221E
:101AA8005A717B6800229A710C37BD465DF8047B39
:101AB800704700BF80B483B000AF78600549054B1C
:101AC8001A697B6813430B610C37BD465DF8047BCC
:101AD800704700BF003C014080B485B000AF78601B
:101AE8000023FB73084B5A697B681340002B02D014
:101AF8000123FB7301E00023FB73FB7B18461437BB
:101B0800BD465DF8047B7047003C014080B483B05B
:101B180000AF7860034A7B6853610C37BD465DF8B7
:101B2800047B7047003C014080B485B000AF78600A
:101B38000023FB730023BB600C4B1A687B681340BF
:101B4800BB600A4B5A697B681340002B05D0BB6801
:101B5800002B02D00123FB7301E00023FB73FB7B06
:101B680018461437BD465DF8047B7047003C0140B9
:101B780080B483B000AF7860034A7B6853610C3748
:101B8800BD465DF8047B7047003C01402C1F0008EF
:101B9800000000206C04002070040020980400203D
:101BA800002103E00A4B5B584350043109480A4BB3
:101BB80042189A42F6D3094A02E0002342F8043B4D
:101BC800074B9A42F9D3FEF7F3FBFEF75FFB70472A
:101BD8002C1F0008000000206C0400207004002066
:101BE80098040020FEE70000014600200246034654
:101BF80000F09CB808B50021044600F0F3F8044B47
:101C08001868C36B03B19847204600F055F900BF28
:101C1800F81E000838B5084B084DED1AAC1018BF6F
:101C2800ED1805D0013C55F8043D9847002CF9D132
:101C3800BDE8384000F066B9281F00082C1F0008CE
:101C480070B50F4E0F4D761BB61018BF002405D087
:101C5800013455F8043B9847A642F9D10A4E0B4D7A
:101C6800761B00F049F9B61018BF002406D00134DD
:101C780055F8043B9847A642F9D170BD70BD00BF26
:101C8800201F0008201F0008281F0008201F000828
:101C980070B4840746D0541E002A41D0CDB2034602
:101CA80002E0621EE4B3144603F8015B9A07F8D118
:101CB800032C2ED9CDB245EA05250F2C45EA05455A
:101CC80019D903F110022646103E0F2E42F8105C77
:101CD80042F80C5C42F8085C42F8045C02F110021D
:101CE800F2D8A4F1100222F00F0204F00F0410320F
:101CF800032C13440DD91E462246043A032A46F8FB
:101D0800045BFAD8221F22F003020432134404F0C1
:101D180003042CB1C9B21C4403F8011BA342FBD134
:101D280070BC704714460346C2E700BF2DE9F04770
:101D3800254C2568D5F84841064688469246994676
:101D4800CCB360681F2818DC431C7EB104EB800507
:101D58000121C5F888A0D4F8887101FA00F2174368
:101D6800022EC4F88871C5F808911ED0023063604D
:101D780044F820800020BDE8F087144B03B34FF4EB
:101D8800C870AFF300800446D0B1D5F848310027B9
:101D980080E88800C5F8484138460123C4F88871AE
:101DA800C4F88C71002EE1D0D0E7D4F88C110A4326
:101DB800C4F88C21DAE705F5A674C5F84841C0E7F0
:101DC8004FF0FF30BDE8F087F81E00080000000063
:101DD800024B13B10248FFF707BF7047000000002D
:101DE8001D1C00082DE9F04F314B83B01B68009390
:101DF80003F5A47381460E460193009BD3F84871FE
:101E080027B3DDF804A07C68651E0ED4013407EB07
:101E180084044FF00008E6B1D4F80031B34218D07A
:101E2800013D6B1CA4F10404F5D1224B73B17B680E
:101E3800002B36D13B68002B34D03846CAF8003026
:101E4800AFF30080DAF80070002FDCD103B0BDE8F2
:101E5800F08F7B682268013BAB420CBF7D60C4F801
:101E68000080002ADCD0D7F88831D7F804B00121E7
:101E7800A940194208D190477B685B45BDD1DAF883
:101E88000030BB42CCD0B8E7D7F88C31194204D126
:101E98004846D4F880109047EEE7D4F88000904781
:101EA800EAE73B68BA461F46002FACD1CEE700BF31
:101EB800F81E000800000000FEE700BF0010002028
:101EC8000040008008000000080000000800000032
:101ED80008000000010000000100000001000000EF
:101EE80000000000000000000600000043000000A1
:101EF8004000002000000000F8B500BFF8BC08BC96
:101F08009E467047F8B500BFF8BC08BC9E467047AF
:081F180014E3FF7F010000004B
:081F2000D91D0008F5010008BD
:041F2800CD010008DF
:101F2C0000000000007A030A00000000000000001E
:101F3C000102030406070809000C0240000C0240D1
:101F4C00000C0240000C02400000024000000000A7
:101F5C000102030401020304060708090000000043
:101F6C00000000002C03002094030020FC03002040
:101F7C000000000000000000000000000000000055
:101F8C000000000000000000000000000000000045
:101F9C0000000000F41E000800000000000000001B
:101FAC000000000000000000000000000000000025
:101FBC000000000000000000000000000000000015
:101FCC000000000000000000000000000000000005
:101FDC0000000000000000000000000000000000F5
:101FEC0000000000000000000000000000000000E5
:101FFC0000000000000000000000000000000000D5
:10200C0000000000000000000100000000000000C3
:10201C000E33CDAB34126DE6ECDE05000B00000088
:10202C0000000000000000000000000000000000A4
:10203C000000000000000000000000000000000094
:10204C000000000000000000000000000000000084
:10205C000000000000000000000000000000000074
:0C238C00000000000000000040000020E5
:042398000000000041
:0400000508001BA92B
:00000001FF
