:020000040800F2
:1000000000000220015C0008551D0008571D000873
:10001000591D00085B1D00085D1D00080000000060
:100020000000000000000000000000005F1D00084C
:10003000611D000800000000631D0008651D000828
:10004000455C0008455C0008455C0008455C00080C
:10005000455C0008455C0008455C0008455C0008FC
:10006000455C0008455C0008455C0008455C0008EC
:10007000455C0008455C0008455C0008455C0008DC
:10008000455C0008455C0008455C0008455C0008CC
:10009000455C0008455C0008455C0008455C0008BC
:1000A000455C0008455C0008455C0008455C0008AC
:1000B000455C0008455C0008455C0008455C00089C
:1000C000455C0008455C0008455C0008455C00088C
:1000D000455C0008455C0008455C0008455C00087C
:1000E000455C0008D1030008455C0008455C000839
:1000F000455C0008455C0008455C0008455C00085C
:10010000455C0008455C0008455C0008455C00084B
:10011000455C0008455C0008455C0008455C00083B
:10012000455C0008455C0008455C0008455C00082B
:10013000455C0008455C0008455C0008455C00081B
:10014000455C0008455C0008455C0008455C00080B
:10015000455C0008455C0008455C0008455C0008FB
:10016000455C0008455C0008455C0008455C0008EB
:10017000455C0008455C0008455C0008455C0008DB
:08018000455C0008455C000825
:1001A000044B05481B1A062B02D9044B03B1184710
:1001B000704700BF8B080020880800200000000066
:1001C00005490648091A891001EBD171491002D07E
:1001D000034B03B1184770478808002088080020A7
:1001E0000000000010B5064C237843B9FFF7D8FF94
:1001F000044B13B10448AFF300800123237010BDFA
:1002000088080020000000006880000808B5084B3E
:100210001BB108480849AFF300800848036813B9C8
:10022000BDE80840CCE7064B002BF9D09847F7E72C
:1002300000000000688000088C080020840800206E
:1002400000000000134B002B08BF114B9D46A3F587
:10025000803A00218B460F461148124A121A07F0C5
:10026000AFF90D4B002B00D098470C4B002B00D062
:1002700098470020002104000D000B4806F0AAFE5C
:1002800006F0D4FE2000290005F0DEFC06F0A8FEF2
:100290000000080000000000000000000000000056
:1002A00088080020F814002001700008C8830008A6
:1002B000000000208408002088080020F814002096
:1002C000704770B5022086B01F4D012101F034F84F
:1002D0001020012101F060F828460621072203F0D2
:1002E000E3F907210A46284603F0DEF9C02300930C
:1002F000022300248DF80430012603232846694692
:100300008DF805308DF806408DF8076003F058F938
:10031000ADF81440ADF81040ADF80E40ADF80C400B
:1003200004F1804404F588344FF4E133029320460D
:100330000C2302A9ADF8123001F056F920463146DF
:1003400001F0CDF906B070BD0004024010B50446BE
:100350000548802101F09DFA0028F9D02146024885
:10036000BDE8104001F0E8B90010014010B5441E8E
:1003700014F8010F10B1FFF7E9FFF9E710BD08B558
:100380000548202101F085FA0028F9D00248BDE88F
:10039000084001F0D5B900BF0010014010B50B4C6A
:1003A000012201461346204601F02CFBA36843F0CE
:1003B0008043A3604FF480532268920703D4013B2B
:1003C000FAD1FE2010BD014BD86C10BD00200140B9
:1003D00008B54FF4805000F0C7FD044B01221A60AD
:1003E000034B4FF400325A6108BD00BFA40800203F
:1003F000003C014082B00190019B5A1E0192002BEB
:10040000FAD102B0704738B505460024AC420FDA85
:100410000121084803F039F90748FFF7EBFF0548C9
:10042000012103F034F90448FFF7E4FF0134EDE75C
:1004300038BD00BF00080240A086010038B50D4657
:1004400018B90846BDE83840DDE70024AC4211DAAF
:100450000221094803F019F94FF47A70FFF7CAFF37
:100460000548022103F013F94FF47A70FFF7C2FF39
:100470000134EBE738BD00BF0004024040F0BF602C
:10048000024B40F40030D860704700BF00ED00E040
:10049000C278037810B512B3164AD1684278C943BE
:1004A000C1F30221C1F10404E4B2A240D4B20F228C
:1004B0000A4181780A40224303F1604303F5614316
:1004C0001201D2B283F8002303780122590903F004
:1004D0001F0302FA03F3084A42F8213010BD5A09FB
:1004E000012103F01F03994002F12003024A42F860
:1004F000231010BD00ED00E000E100E021F06041BC
:1005000021F07F01014B08439860704700ED00E047
:10051000044B1A6909B1104301E022EA0000186196
:10052000704700BF00ED00E0044B1A6804280CBFC0
:1005300042F0040222F004021A60704710E000E06A
:1005400000230928DAB203F1010302D90A38C0B244
:10055000F7E740EA0210C0B27047030903EB8303D8
:1005600000F00F0000EB4300C0B2704700217F2273
:10057000FF2380E80E007047044B08B1FF2202E021
:10058000CA225A6253225A62704700BF00280040B4
:1005900082B0002301930D4BDA68520613D44FF05A
:1005A000FF32DA60094BDA68019901310191019952
:1005B000B1F5803F02F0400201D0002AF2D0D868A5
:1005C000C0F3801000E0012002B070470028004016
:1005D000024AD36823F08003D360704700280040AC
:1005E00038B50F4CCA236362532363620546FFF795
:1005F000CFFF88B1A36823F04003A360A2682B68F3
:100600001343A360AB68236123696A6843EA02432A
:100610002361FFF7DDFF0120014BFF225A6238BD45
:100620000028004082B0002301930E4BCA225A6278
:1006300053225A62DA6822F0A002DA60094BDA68C3
:100640000199013101910199B1F5003F02F02002B9
:1006500001D0002AF2D0D868FF22C0F340105A62BD
:1006600002B070470028004037B51E4CCA23002551
:100670000195636253236362FFF78AFF08B9002084
:100680002BE042F2011325606360A36803F00703C7
:10069000A360144BD968019A01320192019AB2F514
:1006A000803F01F004011A4601D00029F1D0D26840
:1006B0000C4B5207E3D59A684FF6FF7100229A60FF
:1006C0005961094919619A61DA611A62DA601A643A
:1006D000FFF7A8FF003018BF0120024BFF225A622B
:1006E00003B030BD00280040FF007F0038B50B4C40
:1006F000CA236362532363620546FFF749FF50B183
:10070000A36815B143F0100301E023F01003A360C8
:10071000FFF75EFF0120FF23636238BD0028004021
:10072000074BCA225A6253225A629A6810B142F0A9
:10073000200201E002F0DF029A60FF225A62704755
:1007400000280040F8B5214B0C784D788F789B68D5
:100750000E4620B913F0400321D1CB701FE013F0F7
:10076000400300D1CB70280240EA0440F4783843BB
:1007700040EA0444154DCA236B6253236B62FFF7B2
:1007800007FFF8B104F07F3020F0FE402860FFF74B
:100790001FFFFFF747FF003018BF012012E020467F
:1007A000FFF7CEFE04462846FFF7CAFE0546384648
:1007B000FFF7C6FEF37840EA034040EA044040EA0F
:1007C0000524D7E7014BFF225A62F8BD00280040FC
:1007D0000023C37003704370837070470F4B1B6816
:1007E00070B5C3F30542C3F3062603F07F0503F497
:1007F00080031B0C0C460A704E708D70CB7058B97C
:100800001046FFF7AAFE20703046FFF7A6FE607084
:100810002846FFF7A2FEA07070BD00BF0028004070
:10082000014B986A5B68704700280040F8B50F4696
:100830004B78CC788D780E7858BBDA0603D523F048
:1008400010020A324A702046FFF77AFE0446787892
:10085000FFF776FE07462846FFF772FE40EA46306D
:1008600040EA044040EA07240F4DCA236B62532339
:100870006B62FFF78DFE98B124F07F4020F0C0003E
:100880006860FFF7A5FEFFF7CDFE003018BF01201E
:1008900006E0180240EA0440284340EA4634E3E711
:1008A000014BFF225A62F8BD00280040012303706B
:1008B000837043700023C37070470F4B5B6870B543
:1008C000C3F30742C3F3042603F03F05C3F34233E7
:1008D0000C46CA704E708D700B7058B91046FFF7F9
:1008E0003CFEE0703046FFF738FE60702846FFF7A8
:1008F00034FEA07070BD00BF002800402DE9F84F05
:100900000D461646264BD2F80490976894781178D5
:1009100092F801A092F80C8028B99B6813F040036C
:1009200021D1D3701FE09A6812F0400200D1F2701A
:1009300049EA0700204340EA0140F37840EA0A20F0
:1009400040EA034040EA0860154BCA225A6253222B
:100950005A62B5F5807F4FF0FF020CBFD861186274
:100960005A62BDE8F88F0846FFF7EAFD8346504615
:10097000FFF7E6FD82462046FFF7E2FD04464046CB
:10098000FFF7DEFDF37849EA070747EA034323430D
:1009900043EA0B4444EA0A2444EA0060D4E700BF77
:1009A0000028004000230122C3700370437083704D
:1009B0008360027343607047F8B5174BB1F5807FD1
:1009C0000CBFDB691B6AC3F30541C3F3062703F0C1
:1009D0007F06144611705770967003F48002120C53
:1009E000C3F30565E27003F0804203F080332573A2
:1009F000A260636078B90846FFF7AFFD2070384603
:100A0000FFF7ABFD60703046FFF7A7FDA0702846EA
:100A1000FFF7A3FD2073F8BD0028004082B000233B
:100A20000193144BCA225A6253225A629A6819B12E
:100A300010439860012017E022EA00029A60000A41
:100A40000C4BDA680199013101910199B1F5803FB0
:100A500002EA000205D1DB68184214BF0120002021
:100A600002E0002AECD0F6E7024BFF225A6202B005
:100A7000704700BF0028004010B5074BCA245C62D5
:100A80000A43B0F5807F4FF053045C620CBF5A6498
:100A90009A64FF225A6210BD00280040044BB0F552
:100AA000807F0CBF586C986CC0F30E00704700BF7D
:100AB00000280040074BCA225A6253225A629A68A1
:100AC00022F007029A609A681043FF2298605A62E7
:100AD000704700BF00280040044BCA225A625322CC
:100AE0005A62FF2258615A62704700BF00280040D6
:100AF000014B586980B270470028004082B0002343
:100B00000193124BCA225A6253225A629A6820B148
:100B100042F480629A60012012E022F480629A60BE
:100B20000A4BDA680199013101910199B1F5803FD1
:100B300002F0040201D0002AF2D0D868C0F380008D
:100B4000024BFF225A6202B0704700BF00280040EB
:100B5000074BCA225A6253225A629A6822F48022B0
:100B60009A609A6811430843FF2298605A6270475E
:100B700000280040024B986800F48020704700BFB6
:100B800000280040074BCA225A6253225A629A68D0
:100B900022F4E0029A609A6811430843FF229860A9
:100BA0005A6270470028004070B5094CCA2363623E
:100BB0005323636206460D46FFF7EAFC20B1354336
:100BC000A561FFF705FD0120FF23636270BD00BF33
:100BD0000028004038B50B4CCA236362532363627C
:100BE0000546FFF7D5FC50B1A36815B143F080036B
:100BF00001E023F08003A360FFF7EAFC0120FF235C
:100C0000636238BD00280040074BCA225A62532253
:100C10005A629A6810B142F4000201E022F4000224
:100C20009A60FF225A62704700280040074BCA2290
:100C30005A6253225A629A6822F400229A609A6891
:100C40001043FF2298605A62704700BF002800409E
:100C50000E4B10B5CA245C6253245C62DB68DB0374
:100C600006D50B4B094CE468E40301D5013BF9D1EF
:100C7000064BDC68E4035CBF0A4310434FF0FF02FD
:100C800056BFD863002001205A6210BD00280040E2
:100C900001000200084A936823F4006323F008036C
:100CA00009B143F40063CA215162034353215162E5
:100CB0009360FF23536270470028004038B5144604
:100CC0001A4A136B526B0D46C3F305412970C3F3E7
:100CD0000621697003F07F0103F480031B0CEB70A5
:100CE0000023A970E370C2F30423637002F03F0392
:100CF000C2F34232A3702270B8B92878FFF72DFCF6
:100D000028706878FFF729FC6870A878FFF725FC41
:100D1000A8706078FFF721FC6070A078FFF71DFCD9
:100D2000A0702078FFF719FC207038BD0028004023
:100D3000014B986B704700BF00280040044B4000F7
:100D40001A6C11B922EA000000E0104318647047E1
:100D500000280040044B1A6C09B1104301E022EA5C
:100D600000001864704700BF00280040044B1A6C54
:100D700022F4C0521A641A6C10431864704700BF02
:100D800000280040044B1A6C22F4E0621A641A6CCA
:100D900010431864704700BF00280040044B1A6CD1
:100DA00022F4C0421A641A6C10431864704700BFE2
:100DB00000280040044B1A6C10B142F0800201E0A0
:100DC00022F080021A64704700280040044B1A6C1D
:100DD00010B122F4004201E042F400421A6470476C
:100DE0000028004082B000230193054B0193019B32
:100DF00003EB80000190019B196002B0704700BFB7
:100E00005028004082B000230193054B0193019BC1
:100E100003EB80000190019B186802B0704700BF8F
:100E200050280040044B1A6C22F480321A641A6C69
:100E300010431864704700BF00280040044B1A6C30
:100E400022F400321A641A6C10431864704700BF11
:100E500000280040044B1A6C22F480221A641A6C99
:100E600010431864704700BF00280040134BCA228B
:100E700010B55A6253225A62DB681C0707D541F24B
:100E800001030E4AD268120701D5013BF9D10B4A82
:100E9000D36813F008030AD19468E40609D4084320
:100EA000D062FFF7BFFB003018BF012002E0002036
:100EB00000E01846014BFF225A6210BD0028004096
:100EC0000E4BCA2210B55A62532220F004045A6213
:100ED00000F0040031B1996844EA01029A601A6C8A
:100EE000104306E09A6822EA04029A601A6C22EA29
:100EF00000001864014BFF225A6210BD0028004018
:100F0000054BDB6823F088039B049B0C034214BF52
:100F100001200020704700BF00280040054AD36828
:100F200080B240F0800003F0800363EA0003D360E6
:100F3000704700BF002800400A490B6C8A6803F024
:100F4000040310B5CC6803EAD03100EA02030B4376
:100F500006D0A3B213EA101314BF0120002010BD65
:100F6000184610BD00280040054AD368C0F30F1092
:100F700040F0800003F0800363EA0003D360704711
:100F800000280040374B38481A68002142F001021F
:100F90001A6099601A6822F0847222F480321A6012
:100FA000324A5A601A6822F480221A60D960D0F856
:100FB000882082B042F47002C0F88820009101912C
:100FC0001A6842F480321A60264B1A6802F4003222
:100FD0000192009A01320092019A1AB9009AB2F570
:100FE000A06FF1D11B6813F4003318BF01230193E4
:100FF000019B012B05D01C4B4FF000629A6002B0A0
:101000007047184B1A491A6C42F080521A640A68E9
:1010100042F480420A609A689A609A6842F40042F8
:101020009A609A6842F4A0529A60124A5A601A680A
:1010300042F080721A6019680A4A8901FBD50E4B8A
:1010400040F205611960936823F00303936093688D
:1010500043F002039360034B9B6803F00C03082BDF
:10106000F9D1C8E70038024000ED00E0103000245C
:101070000070004008544007003C0240174A1849DD
:10108000936803F00C03042B03D0082B03D0154BFB
:1010900018E0154B16E05068536810F4800F03F009
:1010A0003F03506814BF104A0E4AB2FBF3F30B4AD9
:1010B0005268C2F30142C0F3881001324343520028
:1010C000B3FBF2F30B60054B9B68C3F303130B44B4
:1010D0001A790B68D3400B60704700BF003802409C
:1010E000040000200024F40000127A000A4B1A6861
:1010F000002142F001021A6099601A6822F084729D
:1011000022F480321A60054A5A601A6822F480225A
:101110001A60D960704700BF0038024010300024C8
:10112000024B00221A701870704700BF023802404C
:10113000034A136823F0F80343EAC00010607047C5
:1011400000380240014B1860704700BF0000474262
:10115000064B002201281A701A7002D0042802D00F
:1011600070471870704705221A7070477038024037
:10117000014B1860704700BF800E474210B5029CBB
:1011800040EA046001435B08013B41EA821242EA03
:101190000340014B586010BD00380240014B1860FD
:1011A000704700BF600047420907034B41EA8010C7
:1011B000C3F88400704700BF00380240014B18603C
:1011C000704700BF68004742014B1860704700BF7E
:1011D0004C004742034A936823F0EC6319430843E9
:1011E0009060704700380240034A936823F07843C8
:1011F000194308439060704700380240034A9368DF
:1012000023F0030318439060704700BF003802408A
:10121000024B986800F00C00704700BF0038024095
:10122000034A936823F0F00318439060704700BFAF
:1012300000380240034A936823F4E0531843906057
:10124000704700BF00380240034A936823F46043AC
:1012500043EAC00090607047003802401D4A93681E
:1012600003F00C03042B10B503D0082B03D01A4B4A
:1012700018E01A4B16E05168536811F4800F03F020
:101280003F03516814BF154A134AB2FBF3F3114AE6
:101290005268C2F30142C1F3881101324B4352003C
:1012A000B3FBF2F30B4A036093680D49C3F30313D6
:1012B000CC5C0368E34043609468C4F382240C5D13
:1012C00023FA04F484609268C2F342328A5CD34009
:1012D000C36010BD003802400024F40000127A0000
:1012E0001800002000F44073094AB3F5407F01BFA5
:1012F000936820F0704123F4F81321F4407104BF87
:101300000B439360136FC0F30B00184310677047D3
:1013100000380240014B1860704700BF3C0E474246
:10132000014B1860704700BF400E4742014B1860E8
:10133000704700BF5C014742044B1A6B09B1104370
:1013400001E022EA00001863704700BF0038024045
:10135000044B5A6B09B1104301E022EA00005863C4
:10136000704700BF00380240044B9A6B09B110432C
:1013700001E022EA00009863704700BF0038024095
:10138000044B1A6C09B1104301E022EA0000186412
:10139000704700BF00380240044B5A6C09B110433B
:1013A00001E022EA00005864704700BF00380240A4
:1013B000044B1A6909B1104301E022EA00001861E8
:1013C000704700BF00380240044B5A6909B110430E
:1013D00001E022EA00005861704700BF0038024077
:1013E000044B9A6909B1104301E022EA00009861B8
:1013F000704700BF00380240044B1A6A09B110431D
:1014000001E022EA00001862704700BF0038024085
:10141000044B5A6A09B1104301E022EA0000586205
:10142000704700BF00380240044B1A6D09B11043E9
:1014300001E022EA00001865704700BF0038024052
:10144000044B5A6D09B1104301E022EA00005865CF
:10145000704700BF00380240044B9A6D09B1104339
:1014600001E022EA00009865704700BF00380240A2
:10147000044B1A6E09B1104301E022EA000018661D
:10148000704700BF00380240044B5A6E09B1104348
:1014900001E022EA00005866704700BF00380240B1
:1014A000044B1A7809B1104301E022EA00001870D9
:1014B000704700BF0D3802404209012A074B01D195
:1014C0001B6803E0022A0CBF1B6F5B6F00F01F005C
:1014D00023FA00F000F00100704700BF003802401E
:1014E00007B5002301933120FFF7E6FF019B01338D
:1014F0000193019BB3F5A06F01D00028F3D03120F8
:10150000FFF7DAFF003018BF012003B05DF804FBDD
:10151000024A536F43F080735367704700380240AC
:10152000034BDB68184214BF01200020704700BF46
:1015300000380240014B1870704700BF0E3802405F
:1015400008B5234B984205D110200121FFF760FF19
:10155000102037E01F4B984207D14FF40030012193
:10156000FFF74AFF4FF4003009E01B4B98420BD1C4
:101570004FF480200121FFF73FFF4FF4802000212E
:10158000BDE80840FFF738BF144B984207D14FF42D
:1015900000200121FFF730FF4FF40020EFE7104B50
:1015A000984207D14FF480100121FFF725FF4FF437
:1015B0008010E4E70B4B984209D120200121FFF76E
:1015C00027FF20200021BDE80840FFF721BF08BD0C
:1015D000001001400044004000480040004C004022
:1015E00000500040001401407FB5038ACA889BB2B6
:1015F00023F440531343038283890E469BB223F4A2
:10160000B053098923F00C02B3880B4371890B4353
:101610009BB213438381838AB2899BB223F44073C4
:101620001343838204466846FFF718FE1A4B9C4218
:1016300003D003F580639C4201D1039D00E0029D2D
:10164000A38931681BB2002B4FF0190202FB05F28F
:10165000B4BF4D008D00B2FBF5F5A2896426B5FB41
:10166000F6F00001010912B2002A06FB1153ADBFCA
:101670001A01D90032313232B5BFB1FBF6F2B2FBFA
:10168000F6F302F0070203F00F03B4BF1043184350
:1016900080B2208104B070BD001001404FF4165399
:1016A00003600C2200238380C380038142818381F5
:1016B0007047038A9BB223F4706210B50B884C8884
:1016C00023438C88C98823430B439BB21343038273
:1016D00010BD0023038043808380C38070478389CB
:1016E00019B19BB243F4005303E023F400531B04ED
:1016F0001B0C83817047038B03F47F430383038BAD
:101700009BB2194301837047838929B16FEA434330
:101710006FEA53439BB201E0C3F30E03838170472A
:10172000838A19B19BB243F4006303E023F400639E
:101730001B041B0C83827047C1F308018180704732
:101740008088C0F308007047038A23F00F031B044E
:101750001B0C0382038A9BB2194301827047838961
:1017600019B19BB243F0020303E023F002031B0410
:101770001B0C83817047838923F400631B041B0CBB
:10178000838183899BB2194381817047038A23F047
:1017900020031B041B0C0382038A9BB219430182A2
:1017A0007047038A19B19BB243F4804303E023F4EA
:1017B00080431B041B0C0382704783899BB243F058
:1017C000010383817047838A19B19BB243F00803F8
:1017D00003E023F008031B041B0C83827047038B78
:1017E000DBB20383038B9BB243EA01210183704781
:1017F000838A19B19BB243F0200303E023F0200356
:101800001B041B0C83827047838A19B19BB243F07F
:10181000100303E023F010031B041B0C83827047AA
:10182000838A23F004031B041B0C8382838A9BB2EC
:10183000194381827047838A19B19BB243F0020336
:1018400003E023F002031B041B0C83827047838A8E
:101850009BB20AB1194301E023EA0101818270477A
:1018600010B5C1F34214012301F01F01012C03FA4A
:1018700001F301D10C3003E0022C0CBF1030143006
:1018800012B10268134302E0026822EA0303036014
:1018900010BD0388194214BF012000207047C943BE
:1018A00089B201807047012310B5C1F3421401F0E1
:1018B0001F029C4203FA02F201D1838903E0022C49
:1018C0000CBF038A838A9BB21340028892B23BB159
:1018D000090A01238B40134214BF0120002010BDD0
:1018E000184610BD090A01238B40DB439BB20380DD
:1018F000704700BF08B54FF480700121FFF788FDE5
:101900004FF480700021BDE80840FFF781BD4368B7
:1019100023F040720B6822F4807213430A7943EA81
:1019200002234360CA680B691A438B6810B51A43D7
:101930008468084B234013434A7943EA4203836097
:10194000C36A23F470020B7D013BDBB242EA03530E
:10195000C36210BDFDF7FFC0002303600371437134
:101960008360C360036101230375704710B5074CA2
:10197000074B6268134090E80600114382681143E8
:10198000C2680A431343636010BD00BF00230140D7
:10199000E030FCFF0023036043608360C360704756
:1019A000836811B143F0010301E023F00103836078
:1019B0007047436823F4400323F4007319434160E4
:1019C0007047416282627047436823F01F031943E6
:1019D00041607047044B5A6810B142F4000201E0C4
:1019E00022F400025A60704700230140044B5A68F9
:1019F00010B142F4800201E022F480025A60704784
:101A000000230140092970B50CD9A1F10A04C66868
:101A100004EB44040725A54026EA0505A3402B4313
:101A2000C36009E0056901EB41060724B44025EADB
:101A30000404B34023430361062A0BD8013A446BE4
:101A400002EB82021F23934024EA030391401943CF
:101A5000416370BD0C2A0BD8073A046B02EB82027B
:101A60001F23934024EA030391401943016370BD8F
:101A70000D3AC46A02EB82021F23934024EA030357
:101A800091401943C16270BD836843F08043836015
:101A900070478068C0F380507047836811B143F489
:101AA000806301E023F4806383607047836811B131
:101AB00043F0020301E023F00203836070474368B0
:101AC000013923F4604343EA41334360704743687C
:101AD00011B143F4006301E023F4006343607047F5
:101AE000C06C80B27047014B1868704708230140F2
:101AF000836811B143F4807301E023F48073836041
:101B00007047836811B143F4007301E023F400735C
:101B100083607047044B5A6810B142F4005201E0F0
:101B200022F400525A60704700230140092970B521
:101B30000CD9A1F10A04C66804EB44040725A540AA
:101B400026EA0505A3402B43C36009E0056901EBC4
:101B500041060724B44025EA0404B340234303614B
:101B6000836B0232C3F30154121BD2B202EB820226
:101B70001F24944023EA040391401943816370BDFC
:101B8000836B013923F4401343EA015383637047A5
:101B900082B0002301930190019B19440191019BA4
:101BA0001A6002B07047836823F470231943816080
:101BB0007047836823F4401319438160704783683A
:101BC00043F48003836070478068C0F3805070479F
:101BD000436811B143F4806301E023F48063436000
:101BE0007047436811B143F4805301E023F48053FC
:101BF0004360704782B0002301930190019B28331A
:101C000019440191019B186880B202B07047C9B2B3
:101C100001238B4012B14268134302E0426822EA7A
:101C20000303436070470368194214BF012000207A
:101C30007047C943016070474268006810EA11208C
:101C400006D0C9B201238B40134214BF01200020EB
:101C500070476FEA11210160704700BF044B0022FA
:101C60001A605A609A60DA60024A5A61704700BF8F
:101C7000003C0140FFFF7F0082790168037970B565
:101C8000002A29D0194A1568CE433540156054689A
:101C900003F1804303F59E33344054601C682143B4
:101CA000196003689468DD432C409460D168294032
:101CB000D160417910290BBF916801F1804219432D
:101CC00002F59E3205BF9160D16811680B4316BFC3
:101CD0000B43D360136070BD03F1804303F59E3363
:101CE0001A6822EA0101196070BD00BF003C014082
:101CF00000230C2203600371427183717047024A12
:101D00001369184310617047003C0140034B5B6945
:101D1000184214BF01200020704700BF003C014062
:101D2000014B5861704700BF003C0140054B1A68E9
:101D30005B69034004D0104214BF012000207047AB
:101D400018467047003C0140014B5861704700BF86
:101D5000003C01407047FEE7FEE7FEE7FEE7704704
:101D600070477047704700009A4238BF88547047E8
:101D700070472DE9F84F98460D9BDDF82890DDF867
:101D80002CA0154614469A0706460F4602D009EBCA
:101D90000A0B0EE0C5EB0A030C9A23449342F6D2D9
:101DA000224604F1010B202039464346B0475C46E9
:101DB000F0E704EB0A03CBEB0302CB454A4405D022
:101DC0001BF8010D39464346B047F2E71A460D9B12
:101DD0009B070AD50C99531B8B4206D2541C20201A
:101DE00039464346B0472246F4E71046BDE8F88F2F
:101DF0002DE9F0470E9D089E099C9DF828C0DDF84E
:101E00002CE0DDF830800D9F15F0020F25D14FB189
:101E100015F0010F06D0BCF1000F02D115F00C0F28
:101E200000D0013F06EB0409444502D306EB040948
:101E300010E01F2CFAD84FF0300A013409F801AB3A
:101E4000F2E7BC4209D21F2C07D84FF0300A09F83C
:101E500001AB013415F0010FF3D115F0100F32D0A2
:101E600015F4806F0DD164B1444501D0BC4208D156
:101E7000B4F1010804D0BEF1100F12D1023C03E00E
:101E80004446BEF1100F0DD115F0200F04D11F2CC8
:101E90002FD84FF0780E0CE01F2C2AD84FF0580E98
:101EA00007E04446BEF1020F06D11F2C21D84FF0A7
:101EB000620E06F804E001341F2C1AD84FF0300EE1
:101EC00006F804E001341F2C13D8BCF1000F02D037
:101ED0004FF02D0E0AE015F0040F02D04FF02B0E3C
:101EE00004E015F0080F04D04FF0200E06F804E0CF
:101EF0000134089609940A970B95BDE8F04738E736
:101F00002DE9F04190B0169DDDF860E01B9F0DB902
:101F100027F0100717F4806F0DF1200C00D0FDB1F1
:101F20000026B5FBFEF40EFB1454E4B2092C06F1B6
:101F3000010601D8303408E017F0200F14BF4FF02D
:101F400041084FF061080A3C44440CEB0608E4B237
:101F500008F8014CB5FBFEF51DB1202EE1D100E0E3
:101F60002E469DF85C400294199C04941A9CCDF86E
:101F700000C00196CDF80CE005940697FFF738FFF6
:101F800010B0BDE8F0812DE9F04F93B0DDE91C8978
:101F9000249D099358EA090308BF25F010056B0535
:101FA00083468A460892209E219F4FF0000402D566
:101FB00058EA090325D04046494632463B4602F0DE
:101FC00089F9D2B2092A04F1010401D8303206E0BD
:101FD00015F0200F14BF412361230A3A1A4412ABB3
:101FE0002344D2B203F8212C404649463B463246B0
:101FF00002F070F98046894658EA090301D0202C86
:10200000D9D10AAB8DE818009DF878300293229B55
:102010000493239B05930396069558465146089AC8
:10202000099BFFF7E5FE13B0BDE8F08F08B1FEF79E
:1020300047B9704710B10B684968184770472DE9D8
:10204000F04F97B0924607900891DDE920019B463A
:1020500002460B46DDF88880239F249D02F0C0F8DD
:1020600018B9A34B009303230BE0DDE920014FF0E7
:10207000FF326FF4801302F0BDF820B19D4B009346
:102080000423019317E1DDE920014FF0FF329A4B61
:1020900002F0CEF860B1994A05F00403002B08BFA6
:1020A0000322974B1CBF134604220093019202E1C6
:1020B000DDE920018AA3D3E9002302F0B9F838B999
:1020C000DDE9200188A3D3E9002302F093F870B181
:1020D0009DED207BCDF808808DED007B0397049566
:1020E0000798089952465B4600F010F9F3E0DDE9E5
:1020F00020010022002302F07DF850B1DDE9202309
:102100000020002101F050FC0123CDE920010993BA
:1021100000E0099015F4806F08BF4FF00608002416
:10212000B8F1090F07D90EAB3022E2540134202C4C
:1021300008F1FF38F4D1DDE9200102F083F8714B9A
:1021400003EBC80393ED007B06468DED0A7B01F09F
:1021500079FD02460B46DDE9200101F025FCDDE9B1
:102160000A2301F0D5FDCDE90C0102F093F8814678
:1021700001F058FD02460B46DDE90C0101F014FCAC
:102180000022614BCDE90C0102F052F868B109F16F
:102190000109484601F046FDDDE90A2302F03EF858
:1021A00090B101364FF000090EE0DDE90C0100228C
:1021B000554B02F01FF838B9B9F1000F02D019F0F1
:1021C000010F01D009F10109B8F1000F2AD1304601
:1021D00001F038FD02460B46DDE9200101F0E4FB89
:1021E0000022494B8046894602F004F830B140464F
:1021F00049460022444B02F01BF870B3F0072CD57F
:1022000001362AE016AB013419190A23B9FBF3F29F
:1022100003FB129909F1300901F8219C08F1FF38FC
:1022200091460AB1202CEDD1A044202C15D0444574
:1022300004F1010348D00EAA3021A1541C46F4E752
:102240000A23013496FBF3F1101903FB116C0CF116
:10225000300C00F801CC0E4611B1202C0EAAEFD1A3
:1022600005F00303012B0ED15FB1099B13B915F0E3
:102270000C0F06D0013F04E0202C1AD03023135558
:102280000134BC42F8D31F2C13D8099B1BB116ABE9
:1022900023442D210AE0690703D516AB23442B21E3
:1022A00004E02B0705D516AB2344202103F8201C9E
:1022B00001348DE814000297039507980899524657
:1022C0005B46FFF756FD06E016AA14442E2204F8DA
:1022D000202C1C46C1E717B0BDE8F08FAFF300809B
:1022E0000000000065CDCD410000000065CDCDC1EE
:1022F000FB7D0008FF7D0008FFFFEF7FF27D0008F7
:10230000F77D0008C87C00080000E03F2DE9F04F91
:1023100095B0DDE91EAB0993219B079008910D92C2
:102320000C935046594652465B46209DDDF88890F6
:1023300001F056FF80B1504659464FF0FF32A84B8E
:1023400001F076FF40B9504659464FF0FF326FF426
:10235000801301F04FFF70B10C9B219307980899EF
:102360000D9A099B2095CDE91EABCDF8889015B04C
:10237000BDE8F04F63E650465946002200234FF077
:10238000010401F037FF00B90446E3B2109313B122
:102390000BF100439B46CBF30A5019F48063A0F283
:1023A000FF3008BF0625119301F04CFC7CA3D3E954
:1023B000002301F0ADFC7CA3D3E9002301F0F6FA81
:1023C000884B0F464FF0FF328749064602EA0A0261
:1023D00003EA0B030020104319430022834B01F052
:1023E000E3FA73A3D3E9002301F092FC02460B4603
:1023F0003046394601F0DAFA01F024FF044601F0D4
:1024000021FC6DA3D3E9002306460F4601F080FCB2
:102410000022774B01F0CAFA01F014FF68A3D3E958
:10242000002380463946304601F072FC064640469D
:102430000F4601F007FC64A3D3E9002301F068FC18
:1024400002460B463046394601F0AEFA02460B46CC
:1024500006460F4608F2FF3801F05AFC4FEA0853CF
:102460000F930023CDE90A0132460E9330463B46D6
:10247000394601F09BFA3246CDE912013B46002075
:102480004FF0804101F090FA002206460F46594B6A
:10249000DDE90A0101F066FD0022574B01F086FAE2
:1024A00002460B46DDE90A0101F05CFD0022534BB8
:1024B00001F07CFA02460B46DDE90A0101F052FD0B
:1024C00002460B463046394601F070FA02460B468A
:1024D000DDE9120101F046FD0022434B01F066FAEE
:1024E000DDE90E2301F014FCCDE90A01DDE90A2340
:1024F0005046594601F07EFE40B1DDE90A01002256
:102500003D4B01F02FFDCDE90A01013C04F16303CD
:10251000C72B34BF0426052619F4006F20D050467F
:1025200059462BA3D3E9002301F078FEA0B1504611
:10253000594629A3D3E9002301F05CFE60B1A5420E
:10254000C8BF2D1B4FF00006CCBF05F1FF3500259D
:1025500049F48069344603E015B1119B03B1013D94
:102560000C9BB3428CBFC6EB03084FF0000819F078
:10257000020703D0002E18BF4FF000083CB15046B0
:102580005946DDE90A2301F0EDFC82468B46109B9B
:10259000B3B352460BF1004334E000BFAFF3008009
:1025A000FB799F501344D33FB3C8608B288AC63F42
:1025B00061436F63A787D23F71A379094F930A40A4
:1025C0001655B5BBB16B0240EF39FAFE422EE63F1D
:1025D0002D431CEBE2361A3F0000000080842E41A0
:1025E000FFFFEF7FFFFF0F000000F03F0000F83F0C
:1025F0000000E03F00002C40000024400000184094
:1026000052465B46CDE9002329F4006304930D9AFA
:102610000295CDF80C8007980899099BFFF70FFDEC
:102620000246002E2ED019F0200F00F10108089963
:10263000099B079D14BF45206520A84784EAE473E1
:10264000A3EBE47300930A23029300230393E40FA4
:102650000523013E05934246019404960798089984
:10266000099BFFF74DFC024667B10D9B0C99D31AED
:102670008B4207D2541C20200899099B079DA8472C
:102680002246F2E7104615B0BDE8F08F2DE9F04F75
:1026900091B09046B74A1A9FB1F1000914BF834622
:1026A00093460026187800284ED0252803F101050E
:1026B00006D0434649463246D847741C2B4641E073
:1026C0002B460022184613F8011B2B2911D006D8DF
:1026D000202911D0232944D142F01002F2E72D29FC
:1026E00004D030293DD142F00102EBE742F0020272
:1026F000E8E742F00402E5E742F00802E2E72A2BAD
:102700005FD13C68851C24EAE47404372B786C2B79
:1027100060D058D9742B6DD07A2B6BD0287865286F
:1027200000F05D8179D8472800F0598166D84528A6
:1027300000F0558100F23B81434649463246D84776
:10274000741C6B1C2646ADE746452CBF08F1FF32D2
:102750003246002049464346D847304611B0BDE8CE
:10276000F08FA1F13003092B40F2F4812A290BD11B
:102770003B68002B07F10401BCBF5B4242F0020240
:102780000B9301300F4601E000230B9303782E2BAF
:1027900016D14378A3F13001092942F4806200F197
:1027A0000105ACD82B4600241D4613F8010BA0F1FF
:1027B00030010929AAD80A2101FB0404303CF3E7BF
:1027C00005460024A2E7682B0AD06A2BA6D142F462
:1027D000007211E06B786C2B0CD142F4407207E070
:1027E0006B78682B02D042F0800205E042F0C00214
:1027F000023593E742F4807201358FE7622801D1F8
:10280000022345E004D8582896D142F020023EE049
:10281000632800F0068164280AE06F2801D10823AC
:1028200036E007D8672800F0DA80C0F0C080692859
:1028300082D123E0732800F030811AD870287FF409
:102840007BAF3B6800930023019310230293039412
:10285000082342F021040493324643460594584627
:102860004946FFF74DFB07F1040A06466B1C574625
:1028700018E7752802D0782809D05DE7692822F08A
:1028800010024FF00A0305D0642803D000E01023A3
:1028900022F00C02510548BF22F00102692802F41F
:1028A000007101D0642836D1B9B1073727F0070E7F
:1028B0009EE8011000280EF108077CF1000E614629
:1028C00002DA40426CEB4C01CDE9000104934FEA7F
:1028D000DC710023029105932BE012F4807F07F155
:1028E000040A07D0396881EAE170A0EBE17000903A
:1028F000C90F30E012F0400F396801D0C9B202E0D0
:10290000170648BF09B281EAE170A0EBE1705746B3
:102910000090C90F3CE0B9B1073727F0070101F17A
:102920000807D1E90001CDE90001002102910493DB
:1029300005910B9B079308920694584649463246E8
:102940004346FFF720FB2FE012F4807F07F1040AD3
:1029500012D03868009002930B9B0191049305926A
:1029600003943246584649464346FFF7C9FA57464C
:1029700006461AE0711D000812F0400F396801D0B8
:10298000C9B202E0100648BF89B200915746002143
:1029900002930B9B01910493059203945846494678
:1029A00032464346FFF7ACFA06466B1C7AE6073719
:1029B00027F007034628D3E9000108BF42F02002B0
:1029C00003F108070B9B0393CDE9000104920294E5
:1029D0005846494632464346FFF731FBE4E700F0EC
:1029E000DF03472B07F1070708BF00F0FD0027F0C2
:1029F000070308BF42F400624528D3E9000108BF7D
:102A000042F0200203F108070B9B0393CDE900017C
:102A1000049202945846494632464346FFF776FCF4
:102A2000C2E712F0020402D04FF0010A13E0A446FC
:102A30000B9B0CEB06020CF1020A0CF1010C9C45FD
:102A400008D2CDF830C0202049464346D847DDF8AB
:102A500030C0EDE7164606F1010C3B1D0C93CDF896
:102A600034C03878494632464346D847DDF834C04A
:102A70007CB10AF1FF339B1B0B9A6344934208D24B
:102A80000CF101046246202049464346D847A4463B
:102A9000EFE76B1C0C9F664604E63B1DD7F800C0B1
:102AA0000C93002C14BF23464FF0FF33634467465A
:102AB000397849B912F48063CCEB07070D9307D03E
:102AC000A74228BF274603E09F42F3D00137EFE734
:102AD00012F002030E9313D13B460B99F21B8B426B
:102AE0001A4403F1010A09D2CDF83CC04346202024
:102AF0004946D8475346DDF83CC0EEE757461646F0
:102B0000E246CCEB060252441AF8010B18B90E9BB0
:102B10001446DBB10EE00D9B3BB9CDF83CC04946F5
:102B20004346D847DDF83CC0EBE7631E002CEED0EF
:102B30001C46F2E73B1B0B9913448B4206D2561CF2
:102B4000202049464346D8473246F3E76B1C0C9F8A
:102B50001646A7E503460021184613F8014B0B91D2
:102B6000A4F1300109293FF611AE0B980A2101FBAF
:102B700000413039F0E70FB41FB506AA02A952F898
:102B8000043B0392009205484FF0FF32FFF77EFDB1
:102B900005B05DF804EB04B0704700BF2D200008BD
:102BA0000EB40FB505AA014652F8043B03920092F9
:102BB00004484FF0FF32FFF769FD04B05DF804EB05
:102BC00003B07047691D00080CB41FB50A4606A97A
:102BD000044651F8043B0391009104482146FFF755
:102BE00055FD04B0BDE8104002B07047691D0008F3
:102BF0001FB5034600914FF0FF3203A90248FFF7CB
:102C000045FD05B05DF804FB2D20000873B50646B0
:102C10000D461446009331462A4623460248FFF7E4
:102C200035FD02B070BD00BF691D00080CB47FB552
:102C300008AA049052F8043B03920591009204A95B
:102C40004FF0FF320348FFF721FD07B05DF804EBBA
:102C500002B07047352000084FF0204318B943F206
:102C6000DB021A6003E043F2D20243F82020800026
:102C700000F120406FF070434360C0F804317047AA
:102C80008168436841EA0302C3681A4303691A432F
:102C900043691A4383691A43C3691A43036A1A438F
:102CA000436A1A43836A30B5C46A1343026B2343F1
:102CB00013430268920002F120420829136008BF02
:102CC0001368416B08BF43F040038D6908BF136070
:102CD0000B682B434D6843EA05138D6843EA0523CF
:102CE000CD6843EA05430D69496943EA055343EA60
:102CF0000163B4F5804F536010D1816B88690B6814
:102D00000343486843EA0013886843EA00230869DC
:102D1000496943EA005343EA016301E06FF07043FD
:102D2000C2F8043130BD022210B542604FF4805227
:102D30004262416B4FF40052826200230F22FF2453
:102D400003608360C360036143618361C3610362A5
:102D5000C36203630A604A608C60CA600A614A61A8
:102D60008B61816B0A604A608C60CA600A614A614B
:102D70008B6110BD800000F1204019B1036843F061
:102D8000010302E00268024B13400360704700BF7A
:102D9000FEFF0F0010280CBF054B064B40221821E8
:102DA00019605A604FF0FC329A60DA60704700BFD9
:102DB000600000A0800000A0426883681343C268DE
:102DC00043F008031A4303691343426930B543EAE9
:102DD0004223C46982696168056A006843EA423334
:102DE000A268120442EA012221680A43E168AC6841
:102DF00042EA01616A68240444EA02242A6810282D
:102E000042EA0402EC680CBF0348044842EA046248
:102E100003608160C26030BD600000A0800000A03F
:102E200010230360C269002343608360C3600361B1
:102E300043618361FC23136053609360D360026A33
:102E4000136053609360D360704739B110280CBF92
:102E5000074A084A136843F0040306E010280CBF31
:102E6000034A044A044B11680B401360704700BFCB
:102E7000600000A0800000A0FBFF0F0039B1102807
:102E80000CBF074A074A136843F0400306E01028C6
:102E90000CBF034A034A044B11680B401360704790
:102EA000600000A0800000A0BFFF0F0010280CBF32
:102EB000014B024B58697047600000A0800000A0E1
:102EC000054B18221A6000225A604FF0FC329A60BB
:102ED000DA601A61704700BFA00000A00368426872
:102EE000174943F0100343EA4223826810B543EACE
:102EF0004233C4680B60A2686368120442EA03228A
:102F000023681343E2680469406943EA02638B6003
:102F1000A2686368120442EA032223681343E2684A
:102F200043EA0263CB6082684368120442EA0322E8
:102F300003681343C26843EA02630B6110BD00BF1C
:102F4000A00000A0C2680023036043608360FC23EC
:102F5000136053609360D3600269136053609360A1
:102F6000D3604269136053609360D3607047054B30
:102F700018B11A6842F0040202E01968024A0A40D5
:102F80001A607047A00000A0FBFF0F005AB1102884
:102F900001D10C4A04E0B0F5807F0CBF0A4A0B4A0D
:102FA000536819430CE010286FEA010101D1054A6A
:102FB00004E0B0F5807F0CBF034A044A536819400F
:102FC00051607047600000A0800000A0A00000A039
:102FD000102801D1064B04E0B0F5807F0CBF054BF3
:102FE000054B5B680B4214BF01200020704700BFF7
:102FF000600000A0800000A0A00000A010286FEAE0
:10300000010101D1054A04E0B0F5807F0CBF044AFC
:10301000044A536819405160704700BF600000A027
:10302000800000A0A00000A0102801D1084B04E0FF
:10303000B0F5807F0CBF074B074B5B6813EA0100BC
:1030400004D013EAD10314BF01200020704700BF51
:10305000600000A0800000A0A00000A010284FEA9F
:10306000D10101D1054A04E0B0F5807F0CBF044ACC
:10307000044A536823EA010151607047600000A0D0
:10308000800000A0A00000A02DE9F0477820A0B0AB
:103090000121A14EA14DA24FDFF88882FEF74CF925
:1030A00001200146FEF760F9304600210C2200F0B5
:1030B000FBFA304601210C2200F0F6FA30460421DA
:1030C0000C2200F0F1FA304605210C2200F0ECFA57
:1030D000304608210C2200F0E7FA304607210C2286
:1030E00000F0E2FA304609210C2200F0DDFA304609
:1030F0000A210C2200F0D8FA30460B210C2200F0F5
:10310000D3FA0C2130460A4600F0CEFA30460D21A3
:103110000C2200F0C9FA30460E210C2200F0C4FA4D
:1031200030460F210C2200F0BFFA284600210C2265
:1031300000F0BAFA284601210C2200F0B5FA284620
:1031400003210C2200F0B0FA284604210C2200F0E2
:10315000ABFA284605210C2200F0A6FA28460721E2
:103160000C2200F0A1FA284608210C2200F09CFA5B
:10317000284609210C2200F097FA28460A210C2241
:1031800000F092FA28460B210C2200F08DFA0C2157
:1031900028460A4600F088FA28460D210C2200F045
:1031A00083FA28460E210C2200F07EFA28460F21D1
:1031B0000C2200F079FA384600210C2200F074FA53
:1031C000384601210C2200F06FFA384602210C2209
:1031D00000F06AFA384603210C2200F065FA3846FE
:1031E00004210C2200F060FA384605210C2200F080
:1031F0005BFA0C2138460A4600F056FA38460D2193
:103200000C2200F051FA38460E210C2200F04CFA44
:1032100038460F210C2200F047FA404600210C22CC
:1032200000F042FA404601210C2200F03DFA4046EF
:1032300002210C2200F038FA404603210C2200F053
:1032400033FA404604210C2200F02EFA40460521B4
:103250000C2200F029FA0C224046092100F024FA41
:103260000DF1800902238DF808304FF6B37349F849
:103270007C3D00244FF0010A304649468DF80A4053
:103280008DF80B408DF809A000F09AF94FF6BB734A
:1032900028464946019300F093F94FF23F03384620
:1032A0004946019300F08CF9494640F23F234046DD
:1032B000019300F085F90823059305230C9310234F
:1032C00014934FF480531A934FF480431C9303AB31
:1032D0001E9311A80AAB1F930394049406940794B9
:1032E000089409940A940B940D940E940F941094DE
:1032F0001194129413941594169417941894199485
:103300001B941D94FFF7BCFC20465146FFF732FD8D
:1033100020B0BDE8F08700BF000C02400010024062
:10332000001402400018024030B54900044642B182
:103330000B1A03F1C043023B34F8025BE552013A39
:10334000F5E730BD01F14051490008807047831E08
:10335000C0EB41013AB101F1C0400230013AC05A1C
:1033600023F8020FF6E7704700F140504000008854
:10337000704700BF08B54FF080500121FEF73CF8C0
:103380004FF080500021BDE80840FEF735B8014BF2
:103390001860704720000E42034A136823F0E003D0
:1033A00018431060704700BF00700040014B186068
:1033B000704700BF10000E42014B1860704700BFFD
:1033C000A0000E42014B1860704700BFA4000E42DF
:1033D000044B1A6810B922F4804201E042F48042A2
:1033E0001A60704700700040014B1860704700BFC2
:1033F00024000E420A4A136823F003031843094BC2
:1034000010601A69012942F004021A6101D130BF2B
:1034100000E020BF1A6922F004021A61704700BF61
:103420000070004000ED00E0074B1A6842F0040213
:103430001A601A6842F002021A60044A136943F0E3
:103440000403136130BF70470070004000ED00E0DE
:10345000034B5B68184214BF01200020704700BF77
:1034600000700040024A136843EA80001060704711
:103470000070004008B54FF480400121FDF7C8FFFF
:103480004FF480400021BDE80840FDF7C1BF014B6B
:10349000186070470038014001F0030301F0FC019F
:1034A00001F1804101F59C3110B59B008C680F2221
:1034B0009A4024EA02028A608A68984002438A603D
:1034C00010BD014B18607047DC002742014B1860AB
:1034D000704700BF00042742024B186AC0F3002067
:1034E000704700BF0038014008B52C4B984205D109
:1034F00001200146FDF75CFF012048E0284B98427F
:1035000005D102200121FDF753FF02203FE0254BAA
:10351000984205D104200121FDF74AFF042036E03E
:10352000214B984205D108200121FDF741FF0820D9
:103530002DE01E4B984205D110200121FDF738FFE8
:10354000102024E01A4B984205D120200121FDF7DC
:103550002FFF20201BE0174B984205D1402001216E
:10356000FDF726FF402012E0134B984205D1802042
:103570000121FDF71DFF802009E0104B98420BD17F
:103580004FF480700121FDF713FF4FF4807000218C
:10359000BDE80840FDF70CBF08BD00BF00000240B9
:1035A0000004024000080240000C024000100240EB
:1035B0000014024000180240001C0240002002409B
:1035C000F0B50E6800220123934003EA060E9E45E3
:1035D0002AD1550003230468AB40DB431C40046040
:1035E0000C79076804FA05FC013C4CEA0707012C3A
:1035F000076011D884684F791C4084608468AF40AC
:1036000027438760446824EA0E0444608C79476845
:103610009440A4B23C434460C4682340C360CB7967
:10362000C468AB402343C3600132102ACBD1F0BD44
:103630004FF6FF7303600023037143718371C371FD
:10364000704782B04FF480330193019B0B43019389
:10365000019BC361C161019BC361C3690193C369DC
:10366000019302B070470369194214BF0120002082
:103670007047006980B270474369194214BF012046
:1036800000207047406980B27047018370474183D2
:1036900070470AB1018370474183704741617047A9
:1036A000436959404161704701F00703C90800EBC5
:1036B000810010B59B00046A0F21994024EA0101A2
:1036C0000162016A9A401143016210BD37B50F4C87
:1036D000054654F8200004EB45040121FDF72CFEBB
:1036E000238A009301238DF804308DF807300223DC
:1036F0008DF80530064B002253F825008DF8062082
:103700006946FFF75DFF03B030BD00BF187D0008BC
:1037100028000020044B53F82020044B03EB40000A
:10372000038A1383704700BF28000020187D00081B
:10373000044B53F82020044B03EB4000038A5383CF
:10374000704700BF28000020187D0008054B064A7E
:1037500053F8201002EB40004B69028A53404B6142
:10376000704700BF28000020187D000870B506468D
:10377000012086B00D460146FDF7DEFD4FF4804086
:103780000121FDF709FE174806A900EB8600012379
:10379000002441F8103D00698DF80C408DF80F4071
:1037A000FFF70EFF012D1BD120462146FFF774FEC7
:1037B000082304A88DF8153004958DF814408DF871
:1037C0001650FEF759FA06238DF8043001A80F238E
:1037D0008DF805308DF806308DF80750FCF758FE4F
:1037E00006B070BD2800002008B5044B03EB800034
:1037F00001210069FFF737FF08BD00BF2800002046
:1038000010B50446083002F0EFFA204602F0ECFA58
:10381000204610BDF0B5044685B002AD00F10807A2
:103820002060606029468760C7603846029503952E
:1038300003F0C8F9284602F0D7FA204641F2715346
:1038400040F8103F012302684FF41C7682EA92711F
:10385000B3FBF6F206FB1232334E013306FB0122B4
:10386000B3F51C7F40F8042FEDD1C4F8D039002601
:103870006FF00043C4F8D469C4F8D839CDF800D04B
:10388000CDF804D00C2002F027FB00220260426039
:10389000264A52F8262082606946013603F0D4F9A0
:1038A000042EEFD1204602F09FFA2046694624609C
:1038B000646003F087F9684602F096FA0295039572
:1038C00026680DE068460FE00C2002F005FB0022A0
:1038D00002604260B2688260294603F0B5F936683A
:1038E000A642F1D10AE0284602F07EFA384602F0FC
:1038F0007BFA204602F078FA02F0B4FB384602F078
:1039000073FA38462946B760F76003F05BF928463A
:1039100002F06AFA0123C6F8D43930466FF07F43CB
:10392000C6F8D83905B0F0BD6589076C407D000840
:103930002DE9F041846805462046A66803F08CF91D
:10394000204602F0C7FAD5F8D429D5F8D8399B1A01
:103950005A1C05F110080ED001334FF0FF30B0FBB8
:10396000F3F703FB07F4404602F04AFAA042FAD20A
:10397000B0FBF7F002E0404602F042FAD5F8D43945
:10398000C4180C2002F0A8FA002202604260846091
:1039900005F1080103F058F93046BDE8F08100BF99
:1039A00081F0004102E000BF83F0004330B54FEAF0
:1039B00041044FEA430594EA050F08BF90EA020F5D
:1039C0001FBF54EA000C55EA020C7FEA645C7FEAF0
:1039D000655C00F0E2804FEA5454D4EB5555B8BF13
:1039E0006D420CDD2C4480EA020281EA030382EA84
:1039F000000083EA010180EA020281EA0303362D16
:103A000088BF30BD11F0004F4FEA01314FF4801CE8
:103A10004CEA113102D0404261EB410113F0004FFA
:103A20004FEA03334CEA133302D0524263EB4303B1
:103A300094EA050F00F0A780A4F10104D5F1200E4F
:103A40000DDB02FA0EFC22FA05F2801841F10001AA
:103A500003FA0EF2801843FA05F359410EE0A5F17E
:103A600020050EF1200E012A03FA0EFC28BF4CF0AF
:103A7000020C43FA05F3C01851EBE37101F0004565
:103A800007D54FF0000EDCF1000C7EEB00006EEB72
:103A90000101B1F5801F1BD3B1F5001F0CD34908FC
:103AA0005FEA30004FEA3C0C04F101044FEA445253
:103AB00012F5800F80F09A80BCF1004F08BF5FEADA
:103AC000500C50F1000041EB045141EA050130BDBA
:103AD0005FEA4C0C404141EB010111F4801FA4F15D
:103AE0000104E9D191F0000F04BF01460020B1FAB2
:103AF00081F308BF2033A3F10B03B3F120020CDAEA
:103B00000C3208DD02F1140CC2F10C0201FA0CF0C7
:103B100021FA02F10CE002F11402D8BFC2F1200C2C
:103B200001FA02F120FA0CFCDCBF41EA0C019040E2
:103B3000E41AA2BF01EB0451294330BD6FEA04042B
:103B40001F3C1CDA0C340EDC04F11404C4F1200216
:103B500020FA04F001FA02F340EA030021FA04F328
:103B600045EA030130BDC4F10C04C4F1200220FA7F
:103B700002F001FA04F340EA0300294630BD21FABD
:103B800004F0294630BD94F0000F83F4801306BF83
:103B900081F480110134013D4EE77FEA645C18BF77
:103BA0007FEA655C29D094EA050F08BF90EA020F0E
:103BB00005D054EA000C04BF1946104630BD91EA06
:103BC000030F1EBF0021002030BD5FEA545C05D109
:103BD0004000494128BF41F0004130BD14F5800448
:103BE0003CBF01F5801130BD01F0004545F0FE41BC
:103BF00041F470014FF0000030BD7FEA645C1ABFF1
:103C0000194610467FEA655C1CBF0B46024650EA27
:103C1000013406BF52EA033591EA030F41F4002153
:103C200030BD00BF90F0000F04BF0021704730B5D9
:103C30004FF4806404F132044FF000054FF00001AE
:103C400050E700BF90F0000F04BF0021704730B56F
:103C50004FF4806404F1320410F0004548BF404244
:103C60004FF000013EE700BF42004FEAE2014FEA99
:103C700031014FEA02701FBF12F07F4393F07F4F74
:103C800081F06051704792F0000F14BF93F07F4FA6
:103C9000704730B54FF4607401F0004521F00041E9
:103CA00020E700BF50EA010208BF704730B54FF06F
:103CB00000050AE050EA010208BF704730B511F074
:103CC000004502D5404261EB41014FF4806404F1AC
:103CD00032045FEA915C3FF4DCAE4FF003025FEA2E
:103CE000DC0C18BF03325FEADC0C18BF033202EBB6
:103CF000DC02C2F1200300FA03FC20FA02F001FA10
:103D000003FE40EA0E0021FA02F11444C1E600BFAE
:103D100070B54FF0FF0C4CF4E06C1CEA11541DBF61
:103D20001CEA135594EA0C0F95EA0C0F00F0DEF82C
:103D30002C4481EA030621EA4C5123EA4C5350EA11
:103D4000013518BF52EA033541F4801143F4801362
:103D500038D0A0FB02CE4FF00005E1FB02E506F0F3
:103D60000042E0FB03E54FF00006E1FB03569CF048
:103D7000000F18BF4EF0010EA4F1FF04B6F5007F4E
:103D800064F5407404D25FEA4E0E6D4146EB0606C0
:103D900042EAC62141EA55514FEAC52040EA5E5049
:103DA0004FEACE2EB4F1FD0C88BFBCF5E06F1ED8F3
:103DB000BEF1004F08BF5FEA500E50F1000041EB2A
:103DC000045170BD06F0004646EA010140EA0200D7
:103DD00081EA0301B4EB5C04C2BFD4EB0C0541EAF9
:103DE000045170BD41F480114FF0000E013C00F30E
:103DF000AB8014F1360FDEBF002001F0004170BD32
:103E0000C4F10004203C35DA0C341BDC04F114044A
:103E1000C4F1200500FA05F320FA04F001FA05F2D6
:103E200040EA020001F0004221F0004110EBD370A3
:103E300021FA04F642EB06015EEA430E08BF20EACF
:103E4000D37070BDC4F10C04C4F1200500FA04F372
:103E500020FA05F001FA04F240EA020001F0004104
:103E600010EBD37041F100015EEA430E08BF20EA77
:103E7000D37070BDC4F1200500FA05F24EEA020EBF
:103E800020FA04F301FA05F243EA020321FA04F0EE
:103E900001F0004121FA04F220EA020000EBD370A5
:103EA0005EEA430E08BF20EAD37070BD94F0000FA5
:103EB0000FD101F00046400041EB010111F4801FD9
:103EC00008BF013CF7D041EA060195F0000F18BF8A
:103ED000704703F00046520043EB030313F4801FC6
:103EE00008BF013DF7D043EA0603704794EA0C0F80
:103EF0000CEA135518BF95EA0C0F0CD050EA410696
:103F000018BF52EA4306D1D181EA030101F0004112
:103F10004FF0000070BD50EA410606BF104619463A
:103F200052EA430619D094EA0C0F02D150EA013646
:103F300013D195EA0C0F05D152EA03361CBF104687
:103F400019460AD181EA030101F0004141F0FE4126
:103F500041F470014FF0000070BD41F0FE4141F4AA
:103F6000780170BD70B54FF0FF0C4CF4E06C1CEAAA
:103F700011541DBF1CEA135594EA0C0F95EA0C0F5F
:103F800000F0A7F8A4EB050481EA030E52EA03351A
:103F90004FEA013100F088804FEA03334FF080553B
:103FA00045EA131343EA12634FEA022245EA111568
:103FB00045EA10654FEA00260EF000419D4208BF19
:103FC000964244F1FD0404F5407402D25B084FEAC6
:103FD0003202B61A65EB03055B084FEA32024FF472
:103FE00080104FF4002CB6EB020E75EB030E22BFCF
:103FF000B61A754640EA0C005B084FEA3202B6EB8F
:10400000020E75EB030E22BFB61A754640EA5C003D
:104010005B084FEA3202B6EB020E75EB030E22BFCD
:10402000B61A754640EA9C005B084FEA3202B6EBCE
:10403000020E75EB030E22BFB61A754640EADC008D
:1040400055EA060E18D04FEA051545EA16754FEAEF
:1040500006164FEAC30343EA52734FEAC2025FEA0D
:104060001C1CC0D111F4801F0BD141EA00014FF09C
:1040700000004FF0004CB6E711F4801F04BF01436D
:104080000020B4F1FD0C88BFBCF5E06F3FF6AFAE89
:10409000B5EB030C04BFB6EB020C5FEA500C50F119
:1040A000000041EB045170BD0EF0004E4EEA11319C
:1040B00014EB5C04C2BFD4EB0C0541EA045170BDA3
:1040C00041F480114FF0000E013C90E645EA060EE7
:1040D0008DE60CEA135594EA0C0F08BF95EA0C0F15
:1040E0003FF43BAF94EA0C0F0AD150EA01347FF45D
:1040F00034AF95EA0C0F7FF425AF104619462CE734
:1041000095EA0C0F06D152EA03353FF4FDAE104696
:10411000194622E750EA410618BF52EA43067FF4E7
:10412000C5AE50EA41047FF40DAF52EA43057FF477
:10413000EBAE12E74FF0FF3C06E000BF4FF0010C82
:1041400002E000BF4FF0010C4DF804CD4FEA410CE6
:104150007FEA6C5C4FEA430C18BF7FEA6C5C1BD0B3
:1041600001B050EA410C0CBF52EA430C91EA030F34
:1041700002BF90EA020F0020704710F1000F91EA91
:10418000030F58BF994208BF90422CBFD8176FEA5F
:10419000E37040F0010070474FEA410C7FEA6C5C2D
:1041A00002D150EA013C07D14FEA430C7FEA6C5C34
:1041B000D6D152EA033CD3D05DF8040B704700BF60
:1041C0008446104662468C461946634600E000BFAE
:1041D00001B5FFF7B7FF002848BF10F1000F01BD80
:1041E0004DF808EDFFF7F4FF0CBF012000205DF84B
:1041F00008FB00BF4DF808EDFFF7EAFF34BF0120D0
:1042000000205DF808FB00BF4DF808EDFFF7E0FF68
:1042100094BF012000205DF808FB00BF4DF808EDB9
:10422000FFF7CEFF94BF012000205DF808FB00BF20
:104230004DF808EDFFF7C4FF34BF012000205DF802
:1042400008FB00BF4FEA410212F5001215D211D54A
:104250006FF47873B3EB625212D94FEAC12343F083
:10426000004343EA505311F0004F23FA02F018BF05
:10427000404270474FF00000704750EA013005D1CE
:1042800011F0004008BF6FF0004070474FF0000091
:10429000704700BF4A0011D212F5001211D20DD59D
:1042A0006FF47873B3EB62520ED44FEAC12343F03C
:1042B000004343EA505323FA02F070474FF00000E6
:1042C000704750EA013002D14FF0FF3070474FF095
:1042D0000000704753B94AB9002908BF00281CBF25
:1042E0004FF0FF314FF0FF3000F0F8BF82B0EC46E6
:1042F0002DE9005000F01EF8DDF804E002B00CBC1F
:10430000704700BF2DE9F041069C154606460F4652
:10431000984600F0E5FF05FB01F300FB0838A5FB1C
:104320000023B21A434467EB0303C4E90023BDE84A
:10433000F08100BF2DE9F041069C904606460F46ED
:104340001D4601F01BF900FB05F5A0FB082308FB47
:104350000155B21A2B4467EB0303C4E90023BDE8FF
:10436000F08100BF03685A004CBF43F0004323F0C4
:1043700000431844704700BF2DE9F04F83B099B354
:104380004B1E1746054601939846002606EB080487
:1043900004EBD47464104FEAC40A05EB0A0B5846C8
:1043A000FFF7E0FF019B8146A3420AF10800284481
:1043B0000ED0FFF7D7FFB94500F1FF3004D9B44262
:1043C0000CD004F1FF38E1E7B84203D2661CDDE708
:1043D000B945F4D8584603B0BDE8F08F4FF0000B54
:1043E000584603B0BDE8F08F8B46584603B0BDE891
:1043F000F08F00BF012807D0022807D0044B002807
:104400000CBF1846002070470248704702487047AA
:10441000014B0008054B0008094B000830B5244B40
:1044200083B004468D1E7BB3284601A9AFF30080FC
:1044300020B301992A46FFF79FFF0546F0B1FFF729
:1044400091FF6B68A064012B12D0002B05F10400D2
:1044500020DBFFF787FF0023E06423650368002B60
:104460001CDBFFF77FFF00232061184603B030BD3F
:10447000002323610523184603B030BD00232361C8
:104480000923184603B030BD0A490B48091AC91060
:104490000191CFE70123E0642365DFE7C3F3036005
:1044A000FFF7A8FF002820610CBF09230023DCE7E9
:1044B00000000000BC830008E48100080368DA07FC
:1044C00010B5044606D49B0700F1480009D500F05A
:1044D00085FC2368590709D51A070ED5DB0613D5C5
:1044E00010BD00F073FC23685907F5D404F1D00027
:1044F00000F07CFC23681A07F0D404F5A87000F0E3
:104500007DFC2368DB06EBD404F5E870BDE81040C1
:1045100000F0B8BC03680BB11844704718467047E8
:1045200009207047704700BF70B504460D4608E08B
:104530002B6C63610120236921462A46984708288D
:1045400008D12046296CFFF769FF06460028EFD006
:1045500002F038FD0728FBD13046296CFFF7E2FF57
:10456000281D00F027FC00BF2DE9F0470C1D064672
:1045700017460FCCADF5727D03AD0FC50FCC0FC53F
:104580000FCC0FC594E80F0002AC4FF0000ED6F828
:104590000C80D6F8189085E80F003046216CC4F8DE
:1045A00000E0FFF73BFF002F05460CBF09270A2755
:1045B0007DB1A36B47F010018DE810020120636408
:1045C00032463346C04778BB28460DF5727DBDE8BC
:1045D000F087236C736121464FF4F0727AA801F0E2
:1045E00003F9336931467AAA38469847889B824650
:1045F0008DE8100239466364012032463346C047D5
:1046000090B920467AA94FF4F07201F0EDF8BAF1B2
:10461000080F06D13046216CFFF700FF0927054639
:10462000C6E7BAF1070F04D009200DF5727DBDE889
:10463000F0872846216CFFF775FF03A800F0BAFB4E
:10464000406C7047F0B5CB6B0B640E1D0F460446F3
:104650000FCEF9B001AD0FC50FCE0FC50FCE0FC5F0
:1046600096E80F004FF0FF3685E80F00009606E051
:10467000236921466A4698470828054608D12046FE
:104680001099FFF7CBFE0028F2D0092079B0F0BDD9
:104690006846FFF713FF062DF7D120463946FFF78E
:1046A00043FF00BF30B4DD6BC160826119461D64F9
:1046B000002230BC58E700BF70B5C66843690B6480
:1046C00004460D4626B10122FFF74EFF02F07AFCA8
:1046D0000369214602202A469847072807D0082860
:1046E00003D120462946FFF71FFF02F06BFC30463E
:1046F000296CFFF717FF281D00F05CFBC2681AB198
:10470000CA6B0A6400222FE79CE700BF704700BF16
:10471000836813B1014601201847704700B504298A
:1047200007D8DFE801F00309060909000BB90F2AD1
:1047300005D902205DF804FB01205DF804FB00EBC5
:10474000820218465368019A13605DF804FB00BFAB
:1047500000B585B00A4603AB002100930B46FFF776
:10476000DDFF039805B05DF804FB00BF00B5042928
:1047700007D8DFE801F00309060909000BB90F2A81
:1047800005D902205DF804FB01205DF804FB0199C6
:1047900000EB82020968516018465DF804FB00BF17
:1047A00010B584B004AB0C4643F8042D00210093EF
:1047B00022460B46FFF7DAFF04B010BDF0B5D36B0D
:1047C0001364151D07460E460FCDADF50F7D17ACD2
:1047D0000FC40FCD0FC40FCD0FC495E80F004FF0DD
:1047E000FF3584E80F00169510E016A8FFF7D8FFF4
:1047F000314616A8B847694616AA78B9049B08201E
:104800009847052804460AD0092807D02699684603
:10481000FFF704FE6A460C210028E6D0092416A8FA
:10482000FFF74CFE20460DF50F7DF0BD2DE9F04F52
:104830000D46C96C8BB00C1D096807919046089411
:1048400000F003091E46002B64D1090203230791DF
:104850008DF825608DF824302B6DB9F1020F08BF5B
:10486000AC6B13F0010343D100F00800C2B2039215
:1048700001932768002F3DD0022E47D02788B4F837
:1048800002A00434AB6C2AF0010B40460F219B447C
:10489000FFF75EFF834537D827F001039B44584557
:1048A0002CBF002001200AF0010A07F0010747EAA7
:1048B0004A0ABAF1010F43D03AD3BAF1020F1FD11D
:1048C000236823F000420292B9F1000F7BD138B186
:1048D000039A002A00F08380029A002A00F0A68042
:1048E000002B7ADB029B03F1010A04EB8A04C0E788
:1048F00000230193022E40DDFFF712FE002842D074
:1049000009200BB0BDE8F08F0020CCE7D4F804A05C
:104910000834B7E7022B9FDC0B0CDFB2090402223C
:104920008DF8253004EB870407918DF8242093E758
:10493000B9F1000F02D0002840F0AD80043498E7B0
:10494000B9F1000F26D1B0B194E80C00D70F9A1C32
:10495000D6D005F158020133069200F09280201D56
:10496000FFF7D8FD3A46014606AB284601F080FB2A
:10497000002840F0B58008347BE7404607A900F0E6
:104980001BFB0028BCD1019B002B59D108200BB088
:10499000BDE8F08F40460D212F6AFFF7D9FE874210
:1049A000E9D1AB6A9C42E6D12046FFF7DBFC0F2140
:1049B00002464046FFF7F4FE40462A460021FFF734
:1049C000EFFE07209DE740460D212F6AFFF7C0FE4E
:1049D000874245D02368002B84DA043482E7029BA7
:1049E00023B305F15803059604F1040A039FDDF88B
:1049F00008B0CDF810901E4602E0D9454F4615D0BC
:104A000050460696FFF786FD0022014606AB284673
:104A100001F02EFB07F101090AF1040A0028ECD08D
:104A2000029BDDF81090059E9F42D3D140460D2198
:104A3000FFF78EFE069B2862AC626B62062060E781
:104A40000F214046FFF784FE0E2102464046FFF745
:104A5000A7FE40460F21294AFFF7A2FE072050E794
:104A6000AB6A9C42B6D104220027A3180299A9621E
:104A7000EF622A636B632368BB421FDB0123019350
:104A800030E740460D21FFF763FE2862069B6B620C
:104A9000AC62062035E72046FFF764FC0434064686
:104AA000AC63284601F03CFB00283FF429AF4046A8
:104AB00032460F21FFF774FE072022E70846013037
:104AC00004EB8000FFF74EFC0F2102464046FFF743
:104AD00067FE404639462A46FFF762FE072010E788
:104AE00007460D214046FFF733FE022F2862CDD145
:104AF0002B46069A43F82C2F6B62C9E7796D0008A4
:104B0000002393E6012391E602238FE6F0B50546E4
:104B1000C5B004290CD8DFE801F056030B300E00B5
:104B2000012B4FEA124496B265D0052B00F0848029
:104B3000022045B0F0BD002BFAD1102AF8D82B681E
:104B4000DC0600F1EB8022AE3046019200F0A4F9C1
:104B5000A86B019A0023012404FA03F1114203D047
:104B6000016846F8231004300133042BF4D1A86304
:104B7000304600F087F90020DBE7032BD8D1140C76
:104B800097B23B19102BD3D82B681E0700F1E68093
:104B900022AE30467F0000F053F906EBC4027B1EC4
:104BA000AC6B57B1043A214651F8040B42F8040F9C
:104BB000013B581CF8D104EB87043046AC6300F08D
:104BC0001DF90020B5E7002BB2D1AC6B97B2281DC0
:104BD000012606FA03F1394203F1010302D02168EC
:104BE00001600434102B00F10400F2D112F40050E3
:104BF00020D1AC639DE73219102A99D80F2C97D891
:104C00002968C8074FF0000755D422A8019300F087
:104C1000E1F8019B19E008463746012B00F0988027
:104C20000F2CA86302D822A800F0D8F817B102A868
:104C300000F0DCF800207CE73719202F3FF678AF32
:104C40000F2C30D93746002E45D1A96B3246002EA5
:104C5000E1D0002744A84FEA420C00EBC4000CF15D
:104C6000FF328C388E465EF8046B40F8046F013AD0
:104C7000561CF8D101EB8C00002FCED0102C224610
:104C800044A938BF102201EBC202A2F5C47201464A
:104C90007800043A01EB800051F8046B42F8046F8D
:104CA0008142F9D1B9E7102F42D92A68D007A7F17C
:104CB0001007114610D521F00102052B2A6001933F
:104CC00028465BD021F0030140F8481B00F082F831
:104CD000019B002F4AD02A6851075BD4012B63D077
:104CE0000F2C04D822A8019300F07CF8019B002F20
:104CF000ABD002A8019300F07DF8019BA96BC4F131
:104D00001002002AA6DC102C224644A838BF10222C
:104D100000EBC202A2F5C4727800BAE723F01003D8
:104D20002B6005F5E870019200F0B6F8019A0AE7E9
:104D30002968C8071DD521F00102284642F0020269
:104D400040F8482B0193002700F04CF8019BC9E77D
:104D50000430A86322A800F039F86BE723F00803B9
:104D60002B6005F5A87000F06BF811E7012B3FF4FC
:104D70004CAF0F2C98BF0027B4D966E742F002026F
:104D800040F8482B00F02EF8019B002FAAD02A688B
:104D90005107A5D5284622F0040240F8D02B0193F4
:104DA00000F028F8019B99E722A8019300F012F87F
:104DB000019BA3E700F1340191E838009C46A64628
:104DC0004CF8045D90E8FF0FE54600BD90EC210B28
:104DD000704700BF80EC210B704700BF90EC200BA8
:104DE000704700BF80EC200B704700BFD0EC200B59
:104DF000704700BFC0EC200B704700BFF0EC020111
:104E0000F0EC0211F0EC0221F0EC0231F0EC024186
:104E1000F0EC0251F0EC0261F0EC0271F0EC028176
:104E2000F0EC0291F0EC02A1F0EC02B1F0EC02C166
:104E3000F0EC02D1F0EC02E1F0EC02F1704700BFBF
:104E4000E0EC0201E0EC0211E0EC0221E0EC0231C6
:104E5000E0EC0241E0EC0251E0EC0261E0EC0271B6
:104E6000E0EC0281E0EC0291E0EC02A1E0EC02B1A6
:104E7000E0EC02C1E0EC02D1E0EC02E1E0EC02F196
:104E8000704700BFB0FC0181B0FC0191B0FC01A1F2
:104E9000B0FC01B1704700BFA0FC0181A0FC0191F2
:104EA000A0FC01A1A0FC01B1704700BFEC4600B519
:104EB0002DE900502DE9FF1F4FF000032DE90C00F4
:104EC00001A9FFF7BFFBDDF840E012B0704700BF5B
:104ED000EC4600B52DE900502DE9FF1F4FF000030F
:104EE0002DE90C0001A9FFF7E7FBDDF840E012B067
:104EF000704700BFEC4600B52DE900502DE9FF1FBB
:104F00004FF000032DE90C0001A9FFF7F7FBDDF8D6
:104F100040E012B0704700BFEC4600B52DE90050EC
:104F20002DE9FF1F4FF000032DE90C0001ABFFF747
:104F3000B9FBDDF840E012B0704700BFEC4600B5A9
:104F40002DE900502DE9FF1F4FF000032DE90C0063
:104F500001AAFFF733FCDDF840E012B0704700BF54
:104F6000037A1BB9437A43B9B02070475A1E0368CD
:104F700002721A020260180E70474268013B10B4B8
:104F8000437213680321141D01721A024460026007
:104F90005DF8044B180E704700B585B003AB0021D7
:104FA00000930C220B46FFF7B9FB039805B05DF8A0
:104FB00004FB00BFF0E700BF2DE9F043064685B0D3
:104FC0000D464FF000082846FFF7CAFFB0280446F8
:104FD00000F0B58020F07F0111F0FF0120D000F03B
:104FE000F003802B7AD0902B36D0A02B49D0B02B59
:104FF0005CD0C02B00F0898000F0F803D02B0BD1DF
:1050000000F00702013242F400223046012105235C
:10501000FFF77CFD0028D6D0092005B0BDE8F0835D
:105020000DF10C090B468700CDF8009030460D229B
:10503000FFF774FBFFB2039BCDF8009004376006C6
:105040004FF000014CBFDF1BFF1830460B460D220E
:105050000397FFF78BFBB6E700F00D030D2BDBD0BA
:1050600003AF002100F00F020B4600973046FFF718
:1050700055FB002100970B4630460D22FFF776FBCB
:10508000A1E7C34303F007034FF47F621A4101070E
:1050900002F47F624FF0000148BF42F480420B46A9
:1050A0003046FFF733FD0028B6D18CE7B1284CD04D
:1050B000B2285DD0B32800F08A8000F0FC03B42B46
:1050C000AAD000F007020132012142F400220B466F
:1050D0003046FFF71BFD00289ED174E72846FFF7F6
:1050E0003FFF24022043B0F5004F95D0040100217A
:1050F000A2B20B463046FFF709FD00288CD114F40C
:10510000004F18BF4FF001085DE7C62872D0C728CE
:105110007AD000F0F803C02B00F08980C82800F096
:10512000A580C9287FF478AF2846FFF719FF00F063
:105130000F02013200F0F00042EA003265E7B8F1F8
:10514000000F00F08280002067E72846FFF708FF85
:10515000024600283FF460AF10F0F0017FF45CAF2E
:1051600030460B46FFF7D2FC00287FF455AF2AE704
:1051700000210DF10C090D220B46CDF800903046B0
:10518000FFF7CCFA2846FFF7EBFE02064FF00204C9
:105190000CD5039B00F07F00A040034428460393F6
:1051A000FFF7DEFE030604F10704F2D4039BCDF8FB
:1051B000009000F07F00A04003F5017300211C184F
:1051C0000D220B4630460394FFF7D0FAFBE6284643
:1051D000FFF7C6FE00F00F02013200F0F0000121DF
:1051E00042EA00320B463046FFF790FC00287FF47D
:1051F00013AFE8E62846FFF7B3FE00F00F020132D6
:1052000000F0F0000321EBE72846FFF7A9FE024675
:1052100000283FF401AF10F0F0037FF4FDAE3046FC
:105220000421FFF773FC00287FF4F6AECBE600F014
:105230000F020132032142F420220B463046FFF7D1
:1052400065FC00287FF4E8AEBDE603AC41460E22C3
:10525000434600943046FFF761FA009430464146D9
:105260000F224346FFF782FA4046D6E62846FFF76C
:1052700077FE00F0F00200F00F031032013343EA32
:105280000232C2E610B5C36C84B05A6803208DF8B0
:105290000C00DC798DF80D4012020833084601A994
:1052A00001920293FFF788FE04B010BD08B5FFF726
:1052B00081FE806C08BD00BF08B5FFF77BFEC36CA4
:1052C000D87903EB8000083008BD00BF08B501F0B5
:1052D00079FE00BF08B501F075FE00BF704700BF42
:1052E00000292DE9F043C0F2A6800026002BC0F271
:1052F0009C80884694469E46154604460F46002BE1
:105300003DD18A4259D9B2FA82F33BB1C3F12002AE
:105310009F4020FA02F29D4017439C40290C220C2A
:10532000B7FBF1FEA8B201FB1E7742EA074700FB7C
:105330000EF3BB420AD97F190EF1FF3280F00581CE
:10534000BB4240F20281AEF1020E2F44FF1AA4B21A
:10535000B7FBF1F301FB137744EA074700FB03F0C7
:10536000B84208D97F1903F1FF3280F0F080B842CB
:1053700040F2ED80023B43EA0E43002203E08B4201
:105380000FD900221346341C18BF012460424FF08D
:10539000000565EB45015840514000196941BDE8E1
:1053A000F083B3FA83F2002A40F086808B4202D366
:1053B000844500F2DB800123E5E712B90123B3FB4A
:1053C000F2F5B5FA85F000283BD1781B4FEA154E6F
:1053D0001FFA85FC0122B0FBFEF8210C0EFB18071A
:1053E00041EA07470CFB08F3BB4207D97F1908F1D4
:1053F000FF3102D2BB4200F2BD808846FF1AA4B240
:10540000B7FBFEF30EFB137744EA07470CFB03FCE4
:10541000BC4507D97F1903F1FF3102D2BC4500F228
:10542000A7800B4643EA0843ADE752426FEA0606FF
:1054300063EB43035DE7404261EB41014FF0FF3610
:1054400054E7C0F1200224FA02F107FA00F3854084
:105450004FEA154ED7401943B7FBFEF20B0C0EFB7B
:1054600012771FFA85FC43EA07430CFB02F79F42C1
:1054700004FA00F407D95B1902F1FF3074D29F429D
:1054800072D9023A2B44DF1B89B2B7FBFEF80EFB40
:10549000187341EA03430CFB08F79F4208D95B19D4
:1054A00008F1FF315CD29F425AD9A8F102082B447F
:1054B000D81B48EA02428EE7C2F120032CFA03F11E
:1054C0000EFA02FE20FA03F741EA0E0E08FA02F085
:1054D00028FA03F14FEA1E453843B1FBF5F8030CF7
:1054E00005FB18111FFA8EF743EA014107FB08F389
:1054F0008B420CFA02FC09D911EB0E0108F1FF39BD
:1055000030D28B422ED9A8F102087144C91A80B258
:10551000B1FBF5F305FB131140EA014107FB03F76B
:105520008F4208D911EB0E0103F1FF3016D28F42E2
:1055300014D9023B714443EA0843C91BA3FB0C89FD
:10554000494509D305D000221DE79646FEE61346DD
:1055500011E794404445F6D2013BF4E70346EAE7FD
:105560008846A5E7C846D1E702468CE713460AE716
:10557000023B57E7A8F102082F443FE72DE9F0412D
:10558000002B44D18A42154604464FD9B2FA82F71D
:105590000E464FB1C7F12003B94020FA03F602FAD4
:1055A00007F50E4300FA07F44FEA154E230CB6FB3D
:1055B000FEF0AFB20EFB106143EA014307FB00F1BE
:1055C000994209D95B1900F1FF3280F0EC809942D1
:1055D00040F2E98002382B445A1AA4B2B2FBFEF31F
:1055E0000EFB132244EA024207FB03F7974208D955
:1055F000521903F1FF3180F0D880974240F2D580F4
:10560000023B43EA004000263146BDE8F0818B4270
:1056100047D8B3FA83F6002E48D18B4202D3824298
:1056200000F2CD8001203146BDE8F08112B901259C
:10563000B5FBF2F5B5FA85F8B8F1000F77D14A1B42
:105640004FEA154EAFB20126B2FBFEF0230C0EFB63
:10565000102143EA014107FB00F38B4207D94919A6
:1056600000F1FF3202D28B4200F2BA801046C91A12
:10567000A4B2B1FBFEF30EFB131144EA014407FB95
:1056800003F7A74208D9641903F1FF3280F08F8035
:10569000A74240F28C80023B43EA00403146BDE81D
:1056A000F081002630463146BDE8F081C6F1200485
:1056B00022FA04F5B3402B4320FA04FC01FA06F762
:1056C00021FA04F54FEA134E4CEA0707B5FBFEF842
:1056D000390C0EFB18551FFA83FC41EA05450CFBFB
:1056E00008F1A94202FA06F204D9ED1808F1FF34D4
:1056F00067D3A0466D1ABFB2B5FBFEF40EFB14557E
:1057000047EA05410CFB04FC8C4504D9C91804F197
:10571000FF355CD32C4644EA0844CCEB0101A4FBE2
:105720000223994248D344D0204600266CE7C8F1B2
:10573000200401FA08F305FA08F520FA04F7E1401D
:105740004FEA154E1F43B1FBFEF63A0C0EFB161145
:105750001FFA85FC42EA01430CFB06F29A4200FA6A
:1057600008F407D95B1906F1FF3137D29A4235D9CF
:10577000023E2B449B1ABFB2B3FBFEF00EFB10336C
:1057800047EA03430CFB00F1994207D95B1900F18A
:10579000FF3221D299421FD902382B445A1A40EACB
:1057A0000646674650E7104616E70B4629E71346BC
:1057B00072E7B0409042B7D2601E002624E7304620
:1057C00022E7A94295D9A8F102081D4492E78C4529
:1057D000A0D9023C19449EE71046DFE70E46C9E710
:1057E0000238294443E700BF844641EA000313F02E
:1057F00003036DD1403A41D351F8043B40F8043BD8
:1058000051F8043B40F8043B51F8043B40F8043B9A
:1058100051F8043B40F8043B51F8043B40F8043B8A
:1058200051F8043B40F8043B51F8043B40F8043B7A
:1058300051F8043B40F8043B51F8043B40F8043B6A
:1058400051F8043B40F8043B51F8043B40F8043B5A
:1058500051F8043B40F8043B51F8043B40F8043B4A
:1058600051F8043B40F8043B51F8043B40F8043B3A
:1058700051F8043B40F8043B403ABDD2303211D3DA
:1058800051F8043B40F8043B51F8043B40F8043B1A
:1058900051F8043B40F8043B51F8043B40F8043B0A
:1058A000103AEDD20C3205D351F8043B40F8043BDA
:1058B000043AF9D2043208D0D2071CBF11F8013BD8
:1058C00000F8013B01D30B8803806046704700BF9E
:1058D000082A13D38B078DD010F003038AD0C3F1AD
:1058E0000403D21ADB071CBF11F8013B00F8013B8F
:1058F00080D331F8023B20F8023B7BE7043AD9D34E
:10590000013A11F8013B00F8013BF9D20B78037022
:105910004B7843708B7883706046704700000000BE
:10592000A2EB0300704700BF02780B78012A28BF62
:105930009A42F5D16DE9044540EA0104CDE90267D8
:105940006FF0000C4FEA447212B380EA010414F0C5
:10595000070F6AD100F0070420F0070004F00305E8
:1059600021F007014FEAC505F0E8042314F0040F05
:10597000F1E804670CFA05F462EA040266EA040638
:105980000AD063EA0403624667EA0407664603E056
:10599000F0E80423F1E8046782FA4CF582EA060491
:1059A000A4FA8CF46CBB83FA4CF583EA0705A5FADC
:1059B0008CF595B950E9022351E9026782FA4CF55A
:1059C00082EA0604A4FA8CF483FA4CF583EA07050C
:1059D000A5FA8CF52543DBD09CB92DBAB5FA85F430
:1059E00024F0070427FA04F1DDE9026723FA04F33F
:1059F00003F0FF0001F0FF01FDE80445A0EB01000A
:105A0000704724BAB4FA84F424F0070426FA04F1A7
:105A1000DDE9026722FA04F202F0FF0001F0FF0163
:105A2000FDE80445A0EB0100704714F0030F3CD1E2
:105A300010F0030428D150F8082B51F8083B82FAE3
:105A40004CF582EA0305A5FA8CF55DB950F8042CF3
:105A500051F8043C82FA4CF582EA0305A5FA8CF56C
:105A6000002DE8D02DBAB5FA85F424F0070423FA06
:105A700004F122FA04F202F0FF0001F0FF01FDE858
:105A80000445A0EB010070474FEAC40420F0030076
:105A900050F8082B21F0030151F8083B0CFA04F4EC
:105AA00062EA040263EA0403C9E710F003041AD0AF
:105AB000A1EB040120F00300E40750F8042B06D00A
:105AC0000FD28B785FFAA2F4E41A06D12BB1CB780F
:105AD0005FFAB2F4E41A00D11BB920465DF8104B0E
:105AE000704701F1040150F8042BCC0721F00301A9
